:1000000000800020BD010000F1390000A939000086
:10001000A9390000A9390000A9390000A939000058
:10002000A9390000A9390000A9390000F139000000
:10003000F1390000A9390000313F000035400000CF
:10004000F1390000F1390000F1390000F139000008
:10005000F1390000F1390000F1390000F1390000F8
:10006000F1390000F1390000F1390000F1390000E8
:10007000F1390000F1390000F1390000F1390000D8
:10008000F1390000F1390000F1390000F1390000C8
:10009000F1390000F1390000F1390000F1390000B8
:1000A000712000007D200000F1390000F1390000CE
:1000B000F1390000F1390000F1390000F139000098
:1000C000F1390000F1390000F1390000F139000088
:1000D000F1390000F1390000F1390000F139000078
:1000E000F1390000F1390000F1390000F139000068
:1000F000F1390000A13A0000F1390000CD3B0000C9
:10010000F1390000F93C0000F1390000F13900003C
:10011000F1390000F1390000F1390000F139000037
:10012000F1390000F1390000F1390000F139000027
:10013000F1390000F1390000F1390000F139000017
:10014000F1390000F1390000F1390000F139000007
:10015000F1390000F1390000F1390000F1390000F7
:10016000F1390000C9270000F1390000F139000021
:10017000F1390000F1390000F1390000F1390000D7
:10018000F1390000F1390000F1390000F1390000C7
:10019000F1390000F1390000F1390000F1390000B7
:1001A000F1390000F1390000F1390000F1390000A7
:1001B000F1390000F1390000F1390000564B4CF2E2
:1001C000205210B51A804DF628121A8000BF00BFC9
:1001D00003F012FC514B4FF010621A60504A9A60C3
:1001E000504ADA60504A136813F4807304D14F49BF
:1001F0000B604FF4A85313604D4B1A78110703D5C9
:100200001A7842F008021A704A4B4B492A221A7097
:100210004A4A4B4B8B4204D252F8040F43F8040B6A
:10022000F8E7484B484900228B4202D243F8042B9E
:10023000FAE74649464A002352F8230041F82300D2
:1002400001336F2BF8D1434B434A802103F8011B44
:100250009342FBD1414B3D4A1A60414B8A221A70AE
:10026000A3F5805324225A70A0221A709A7992071B
:10027000FCD59A79D406FCD43A4A937903F00C035E
:10028000082B384BF9D103221A7146225A719A79F8
:100290009006FCD5334A9179324B4906FBD5324A58
:1002A0004FF0827111600921516020221A709A79F1
:1002B00002F00C020C2AFAD12C4B2D4A1A602D4B5D
:1002C0002D4A1A6000225A60072243F8042C2B4A58
:1002D000C3F80C2D62B602F02DF9144B1B68DA0737
:1002E00005D5274802F08AF8264B274A1A60274B83
:1002F0001B785B0609D5234C234B22689A4204D114
:100300001F4802F07BF80023236004F053FB03F046
:1003100079FB03F06DFAFEE70E20054030800440C3
:10032000823F04000100002B10D0034014D0034092
:1003300002D0074000E007402894FF1FC49100004E
:100340002087FF1F2894FF1F70A1FF1F0082FF1F3F
:100350000000000000E400E05FE400E008ED00E0E1
:1003600000500640004006404480044004800440A1
:10037000C010050014E000E0BFD401000000202000
:100380007905C45E1CE00340A5C3945A00F0074001
:10039000FFFFFFFFFFFFFFFFFFFFFFFFFFFFFFFF6D
:1003A000FFFFFFFFFFFFFFFFFFFFFFFFFFFFFFFF5D
:1003B000FFFFFFFFFFFFFFFFFFFFFFFFFFFFFFFF4D
:1003C000FFFFFFFFFFFFFFFFFFFFFFFFFFFFFFFF3D
:1003D000FFFFFFFFFFFFFFFFFFFFFFFFFFFFFFFF2D
:1003E000FFFFFFFFFFFFFFFFFFFFFFFFFFFFFFFF1D
:1003F000FFFFFFFFFFFFFFFFFFFFFFFFFFFFFFFF0D
:10040000FFFFFFFFFFFFFFFFFFFFFFFFDEF9FFFF23
:1004100010B5054C237833B9044B13B10448AFF33E
:1004200000800123237010BD2894FF1F00000000EE
:10043000C0910000084B10B51BB108490848AFF344
:1004400000800848036803B910BD074B002BFBD0A0
:10045000BDE81040184700BF000000002C94FF1FAB
:10046000C09100002894FF1F0000000038B500254F
:100470000446C0F89C50C0F8A050C0F80C51C0F819
:100480001051294600F5077003F088F984F82C52C2
:1004900084F82D52204638BDF0B40124002580F8A0
:1004A0001641134680F8195100F21B1400F21B2765
:1004B00004F8015FA7424FF00006F9D1012480F84B
:1004C000171180F8183180F82C6280F8144180F8F8
:1004D000154180F82D420A4620460249F0BC00F042
:1004E0000FBC00BF588C0000C9B200F21B1300F211
:1004F0001B2203F8011F9342FBD170472DE9F843FB
:10050000044690F8186190F8175102F077FFC0B2D6
:10051000932800F2A580DFE810F0AF002C021C0247
:100520000E0206026602A900A300A900A300A30010
:10053000A300A300A300A300A3005801440171027B
:10054000D80144036C01DD00D000BB0014037C0221
:10055000DD02A101A300A300A3002103E301A30086
:10056000A300A300A300A300A300A300A300A30073
:10057000A300A300A300A300A300A300A300A30063
:10058000A300A300A300A300A300A300A300A30053
:10059000A300A300A300A300A300A300A300A30043
:1005A000A300A300A300A300A300A300A300A30033
:1005B000A300A300A300A300A300BB02A500A50005
:1005C000A300A300A300A300A300A300A300A30013
:1005D000A300A300A300A300A300A300A300A30003
:1005E000A300A300A300A300A300A300A300A300F3
:1005F000A300A300A300A300A300A300A300A300E3
:10060000A300A300A300A300A300A300A300A300D2
:10061000A300A300A300A300A300A300A300A300C2
:10062000A300A300A300A300A300A300A300A300B2
:10063000A300A300A300A300A30094009303460219
:10064000120102F0DBFE054602F0D8FE064602F07B
:10065000D5FEAB0103F47F5353FA86F3FF2B27DD5E
:10066000BDE8F883BDE8F84302F0C8BE02F0C6FE5C
:10067000BDE8F84302F0C2BE002002F0A9FF01204D
:1006800002F0A6FFB6FBF5F0BDE8F84302F0A0BF0C
:1006900002F0B4FE064602F0B1FE054602F0AEFEE0
:1006A00094F81831EDB2F6B203FB0563FF2BD7DCEB
:1006B000234483F81C01BDE8F88302F09FFE04F296
:1006C0001B13C0B204F21B2403F8010F9C42FBD1A0
:1006D000BDE8F88302F092FE064602F08FFEC0B23B
:1006E000102803D91030C0B21028FBD800F0F8054C
:1006F00002F084FEF6B22B46C0B200250F270FE0B1
:1007000094F8182103FB0262FF2A04EB020101DCCA
:1007100081F81C7101350133082DDBB200F0B18284
:1007200040FA05F212F00102EAD194F8181103FB25
:100730000161FF29DCBF091981F81C21EAE702F0F9
:100740005DFE074602F05AFEC5B202F057FEC6B281
:1007500002F054FEB542C0B2C0F09F823F2D0ED8C9
:10076000B90101F47F516A18FF2AD8BF121905F1A7
:100770000103DDB2D8BF82F81C01402DF3D1002E59
:1007800000F09C82BB0103F47F532B441C440022E5
:100790000132FF2BD1B2D8BF84F81C01B142F7D38C
:1007A0005EE702F02BFE054602F028FE94F81831B1
:1007B000EDB2C0B203FB0053FF2B3FF751AF234410
:1007C0000F2283F81C21BDE8F88302F017FE0546CE
:1007D00002F014FE94F81831EDB2C0B203FB0053DE
:1007E000FF2B3FF73DAF2344002283F81C21BDE8D7
:1007F000F88302F003FEC0B2102803D91030C0B253
:100800001028FBD800F0F80502F0F8FD064602F0CB
:10081000F5FDF6B22B46C0B200210F270FE094F889
:10082000182102FB0632FF2A04EB020501DC85F8E1
:100830001C71013101330829DBB200F0288240FA33
:1008400001F212F00102EAD194F8185105FB0635C5
:10085000FF2DDCBF2D1985F81C21EAE702F0CEFD43
:10086000C0B2102803D91030C0B21028FBD800F055
:10087000F80602F0C3FDC0B2102803D91030C0B290
:100880001028FBD800F0F80500270F2212E094F89A
:10089000183112F00F0105FB0363FF2BD8BF1B19A2
:1008A00007F10107D8BF83F81C11681C082FC5B2D7
:1008B00000F0E981F907EAD402F0A0FD94F81831BC
:1008C000C2B205FB03631109E7E704F21B130F2211
:1008D00004F21B2403F8012F9C42FBD1BDE8F883EE
:1008E00002F08CFD054602F089FDD4F89C103129F8
:1008F0003FF7B6AED4F8A030D04ACE1882FB06231C
:10090000F217C2EB2312322303FB1263DBB203EBB9
:100910004303234401220131DD7018715A71C4F878
:100920009C10BDE8F88302F069FD02F067FDBDE8A8
:10093000F84302F063BD022002F04AFE012002F0FB
:1009400047FE002002F044FE0020BDE8F84302F01C
:100950003FBE04F5077400252946204602F03AFF01
:10096000064602F04BFD0135202D3070F4D1BDE874
:10097000F883012002F02CFE002504F5077608E03C
:1009800002F028FF007802F023FE0135202D00F050
:100990008281D4F82432AB4229463046F0D8002078
:1009A00002F016FEF1E702F029FD800100F47F5607
:1009B00006F58E731C4400250F200CE0721910F010
:1009C0000F03FF2A05F1010598BF2370402D04F1A4
:1009D000010400F05E81EB07F0D402F00FFDC0B21D
:1009E00072190309EDE7032002F0F2FD304602F030
:1009F000EFFD2846BDE8F84302F0EABD04F21B1300
:100A0000002204F21B2403F8012FA342FBD1BDE80E
:100A1000F88302F0F3FCC0B2102803D91030C0B242
:100A20001028FBD800F0F80602F0E8FCC0B210284D
:100A300003D91030C0B21028FBD800F0F807002509
:100A40000F2005F108085FFA88F8B14615E094F820
:100A5000183110F00F0207FB0393FF2BD8BF1B19AF
:100A600005F10105EDB2D8BF83F81C2109F101039E
:100A7000A8455FFA83F900F0FD80EB07E7D402F0A8
:100A8000BDFC94F81831C0B207FB03930209E4E7F8
:100A900002F0B4FC054602F0B1FCD4F80C11312987
:100AA0003FF7DEADD4F81031644ACE1882FB06233E
:100AB000F217C2EB2312322303FB1263DBB204EB07
:100AC0004303013183F8A65083F8A700C4F80C1142
:100AD000BDE8F88302F092FCC0B2102803D91030B0
:100AE000C0B21028FBD800F0F80502F087FCC0B2B5
:100AF000102803D91030C0B21028FBD800F0F80637
:100B000000270F2212E094F8183112F00F0106FBB3
:100B10000353FF2BD8BF1B1907F10107D8BF83F878
:100B20001C11681C082FC5B200F0AF80F807EAD48A
:100B300002F064FC94F81831C2B206FB03531109A9
:100B4000E7E702F05BFC04F21B13C0B204F21B24C3
:100B500003F8010F9C42FBD1BDE8F88302F04EFC84
:100B6000054602F04BFCD4F89C1031293FF778ADD4
:100B7000D4F8A030314ACE1882FB0623F217C2EB1C
:100B80002312322303FB1263DBB203EB4303234440
:100B900000220131DD7018715A71C4F89C10BDE853
:100BA000F88302F02BFCC0B2102803D91030C0B279
:100BB0001028FBD800F0F80602F020FCC0B2102884
:100BC00003D91030C0B21028FBD800F0F80808F1A3
:100BD0000807FFB24FF00F0902F010FC3346C0B215
:100BE00000210EE094F8182108FB0232FF2A04EBE2
:100BF000020501DC85F81C91013101330829DBB2C3
:100C000014D040FA01F212F00102EBD194F818511D
:100C100008FB0535FF2DD8BF2D1901F10101D8BF03
:100C200085F81C2101330829DBB2EAD108F101085B
:100C30005FFA88F84745CFD1BDE8F8831F85EB51AF
:100C400002F0DCFB054602F0D9FBAA0102F47F5258
:100C50001B4D02F58E7302F5AE72C0B22344A1188B
:100C60002D1BEA18FF2AD8BF187001339942F8D11A
:100C7000BDE8F8830137402DFFB27FF4E2AEBDE856
:100C8000F883BDE8F883BDE8F883BDE8F883BDE8E4
:100C9000F883BDE8F883BDE8F883BB0103F47F5314
:100CA000EA18FF2AD8BF121905F10101CDB2D8BF49
:100CB00082F81C01AE42F3D8BDE8F883BDE8F883A2
:100CC000E4FEFFFF10B5044602F0D4FB00B910BDEE
:100CD0002046BDE81040FFF711BC00BF38B5012B1E
:100CE0000D460CBF21202020144602F071FC28463E
:100CF00002F06EFC2046BDE8384002F069BC00BF3F
:100D000000281DDD0EB410B5B5B038AC02A8C8225D
:100D10000021019404F0B8F92346379AC82102A8AB
:100D200004F016FD02A804F06BFC014602A802F0D4
:100D3000CBFB044802F0E2FC35B0BDE8104003B044
:100D4000704700BFF089FF1F00207047704700BF49
:100D5000704700BFC0F38D0200F00300032802F0CB
:100D60000F0108B5C2F3071209D0022801D00020F4
:100D700008BD00230448FFF7B1FF002008BD012390
:100D80000148FFF7ABFFF2E75C94FF1F10B5044684
:100D900000F5077002F0C2FC204610BD70B5064C8D
:100DA000064EA4F5787544F8106C20467C3C00F0A3
:100DB000FBFCAC42F7D170BD009AFF1F908C000085
:100DC0002DE9F0410024DFF85480114E114F2246E6
:100DD00056F8043F18F8015F0F48DBB29D420CD073
:100DE0007B5DC3EB03231B121A0202EB03421A447E
:100DF000A1B200F0D7F9356001220134802CE7D18F
:100E00000AB9BDE8F0810448BDE8F04100F0D8B966
:100E10006C9AFF1FB08C00005494FF1F7795FF1F42
:100E2000F0B5354D3549364C012385B005F50770D1
:100E300085F8153102F0C6FC284610220821FFF77C
:100E40002BFB304800F03EF904F5F8752046FF21F1
:100E500000F09EFD04F5F870FF217C3400F098FD51
:100E6000AC42F3D1002601270024E5B22A46032331
:100E700031462448009700F061F92A4602233146A2
:100E80002048009700F05AF901342A461E4B1D48AD
:100E9000314600F03DF9082C4FF00105E5D12E4414
:100EA000F6B2102EE0D14FF4967001F0F5FA002161
:100EB0001148FFF719FBFFF783FF144B144A1B6817
:100EC00003930399134B11600E481D706FF07F421E
:100ED000002100F067F90B4800F072F9642001F07E
:100EE000DBFA00221146074800F05CF9054800F0E3
:100EF00067F905B0F0BD00BF5C94FF1F4494FF1F6D
:100F00009C96FF1F5494FF1F550D0000789EFF1FF5
:100F1000709EFF1F6C9AFF1F30B50D4883B0FFF71E
:100F2000D1FE0C4B1B788BB10B4D0C4C2B680093F6
:100F3000009B22689B1A102B08D9094800F05CF925
:100F4000FFF73EFF2B680193019B236003B030BD88
:100F50005C94FF1F6C9AFF1F789EFF1F709EFF1FFF
:100F60005494FF1F2DE9F041DFF8D8802A4D2B491A
:100F70002B4F2C4C2C4E82B0404602F00FFC2A46E0
:100F80002A49404603F0CCFC294A2A4B12680192B8
:100F9000019A1A603846FFF769FA2A463846264908
:100FA00003F0BEFC2046322100F04EF804F17C0034
:100FB000302100F049F804F1F8002F2100F044F846
:100FC00004F5BA702E2100F03FF804F5F8703321D3
:100FD00000F03AF804F51B70312100F035F804F503
:100FE0003A703E2100F030F804F55970362100F0D7
:100FF0002BF82A461149002003F092FC21460423D5
:101000003046022200F058F82A4630460C4903F0D8
:1010100087FC02B0BDE8F081FC87FF1FC08C000098
:101020005C94FF1F8C96FF1F5494FF1F1D37000018
:10103000789EFF1F709EFF1F8D0D00009D0D00000C
:10104000510D00004494FF1F70B5054682B00E4656
:10105000002100F067F928460B4B40F8103B0024B4
:10106000522303221021009400F088FB224605F150
:10107000380305F1780143F8042F8B42FBD1284651
:1010800085F8386002B070BD908C000070B50D46D8
:1010900080F8381004461646103000F0EFFB294661
:1010A00032462046002300F095FA054610B120464E
:1010B00000F0C4FA284670BD10B40270437041605D
:1010C00010BC704702780AB370B543780546002615
:1010D00000241BB915E06B78A34211DD6A6803FB9D
:1010E0000643C3EB431302EB8303184693F838100F
:1010F0004FF0FF32FFF7CAFF01340028EBD170BD7B
:101100002A780136B242E3DC012070BD012070472D
:1011100070B4447845689608880806FB040002F01D
:101120000302C0EB401001F0030105EB800001EB6E
:10113000820100EB810170BCCB63704770B402F098
:1011400003054678406801F0030404EB8504920827
:10115000890802FB0615A10804F00304C5EB451538
:1011600004EBC1011A4600EB85009DF80C30C9B2B2
:1011700070BC00F00BBA00BF70B4457840689608A8
:101180008C0806FB0544C4EB441402F0030500EB95
:10119000840001F0030101EB85011A46103070BC98
:1011A00000F09CBB10B44478A30091FBF3F403FB64
:1011B0001411C9B21346E2B210BCFFF7DDBF00BF85
:1011C0000378C3B170B5054640780026002470B19D
:1011D00000FB06406B68C0EB401003EB8000103052
:1011E00000F066FB68780134A042F1DC2B78013610
:1011F000B342EBDC70BD70470378002B00F08180B8
:101200002DE9F04F85B000AF00224478BA608346E4
:10121000002C6DD0BB689B00FB604FF0000805E020
:101220009BF8014008F1010844455FDDBB6804FB01
:101230000384DBF80430C4EB441403EB840420463D
:1012400000F040F944F62063013BFDD10028E7D0CF
:101250000230C6B2F31D23F00703C7F804D0ADEB8C
:10126000030D6946324620466D4600F01DF9AEB3C7
:101270004FEA8803C7F800804FF0000AB0462646C0
:101280001C4615F80A008208D31002F0070202EB90
:10129000830363F387000F2B06EB830205F80A0034
:1012A00016D8F968D26B03F00300204401EBA303C6
:1012B00072B19BF801E015F80AC04FEA8E0E1EFBD2
:1012C00003F318446CF3010960F38F094846904713
:1012D0000AF1010AD045D4DCD7F800809BF8014020
:1012E000D7F804D008F1010844459FDC9BF8003092
:1012F000BA6801329342BA608ADC1437BD46BDE851
:10130000F08F704790F8383090F839209A4205D91C
:101310005A1C034480F83820187E70474FF0FF3085
:10132000704700BF0022044B0271036009B1816065
:101330007047024B83607047D88C00003488FF1FD1
:101340002DE9F04F85B09DF83890BDF83C40B9F1DB
:10135000000F79D004EB84041F46DFF8F880039275
:10136000E30002910546019300246A79AB68029973
:10137000520083F83B204FF0010283F85E2083F88F
:101380005D20A8680368C4EB0906202E1B68A8BF6F
:1013900020269847A868039903681B68984795F921
:1013A0000C00421CF6B202D106E095F90C00C0B266
:1013B00001F03CF80028F8D00121A86800F0C0FC3A
:1013C000019B13B1019B013BFDD195F90C00431C1E
:1013D00002D106E095F90C00C0B201F027F8002810
:1013E000F8D0012332466979A86800F033FD4EB386
:1013F0004FF0000B12E090F8383090F839209A4204
:1014000003F1010E00EB030121D980F838E0087EDA
:1014100007F80A000BF1010BB34510D0A868036868
:101420005B6904EB0B0A43455FFA8AFAE3D09847FD
:101430000BF1010BC0B2B34507F80A00EED15C44D2
:1014400004F0FF04A14590D805B0BDE8F08FFF205F
:10145000DEE700BF0513000010B5023984B0032990
:101460001FD8DFE801F018021C1A082202214FF4ED
:10147000FA738DE80A0003AB0921FFF761FF9DF8BD
:101480000C409DF80D30012043EA042401F004F8DB
:10149000204604B010BD0722E8E70A22E6E7092249
:1014A000E4E70020F5E700BF10B582B04FF47A748E
:1014B000009210220B4601941146FFF741FF02B043
:1014C00010BD00BF00B5012285B04FF4FA738DE85E
:1014D0000C0010210DF10F030422FFF731FF9DF8DE
:1014E0000F0005B05DF804FB2DE9F04145799DF84A
:1014F0001860044601278068BD4080F85E7080F85F
:101500003B5080F85D70A0680568D5F800801F46E4
:101510001546C047A068036829461B689847A0681D
:10152000056832466B683946984794F90C00431CAD
:1015300002D106E094F90C00C0B200F077FF002859
:10154000F8D0A0680121BDE8F04100F0F9BB00BF70
:101550000439C9B2032916D870B50B4B5D56002D5E
:1015600084B00EDB0323144616120093022203AB51
:1015700008218DF80C508DF80E408DF80D60FFF7A6
:10158000B3FF04B070BD7047CC8C000030B50125AE
:1015900085B04FF0000405FA02F263F30004022361
:1015A0008DF80C1062F3440400932A4603AB10211B
:1015B0008DF80D40FFF798FF05B030BD30B585B010
:1015C00004AC012504F8013D00952346FFF78CFF8C
:1015D00005B030BD30B51D46531C85B00446417181
:1015E000027303D0D0B2002100F02EFFA06800F0FB
:1015F00017FA95B901227D2320468DE80C000021C1
:101600000DF10F03FFF79CFE9DF80F00A0F15500B0
:10161000B0FA80F0400905B030BD04ABFF2203F8FA
:10162000022D0122009220467F220021FFF75CFF5D
:101630004FF4FA7000F030FFDCE700BF00B585B072
:1016400004AB012203F8012D102100920222FFF7C2
:101650004BFF05B05DF804FB10B584B004AB01246A
:1016600003F8011D052202210094FFF73DFF2046EB
:1016700000F012FF204604B010BD00BF10B50A787C
:101680008AB0A2B100230AAC1C44013304F8202C18
:1016900011F8012FDBB2002AF5D11C460093052278
:1016A00002AB0221FFF720FF20460AB010BD14460E
:1016B0001346F3E70439C9B2032921D870B5194C90
:1016C0006556002D84B019DB102B144619D0164B2B
:1016D0008DF80C50C2EB024283FB02341444D21743
:1016E000C2EBE414032325120093012203AB08216B
:1016F0008DF80E408DF80D50FFF7F6FE04B070BD6A
:101700007047032316120093012203AB08218DF8C2
:101710000C508DF80E408DF80D60FFF7E5FE04B01B
:1017200070BD00BFCC8C00008180808038B504463D
:101730004079A3680125A84083F85E5083F85D5086
:1017400083F83B00A06803681B6815469847A068AB
:10175000036829461B68984794F90C00431C02D182
:1017600006E094F90C00C0B200F060FE0028F8D04A
:10177000A0680121BDE8384000F0E2BAF8B504469F
:101780000F46069916461D46FFF7CCFD0021054879
:101790002675617520602782A584E173A1612162AD
:1017A0002046F8BD008D000010B504468069034B4B
:1017B000236008B103F02EF9204610BD008D000013
:1017C00070B50546806984B00E4608B103F022F971
:1017D000EB7F2C7FA34214BF0424032414FB06F4E4
:1017E000A4B26C822046012103F0A0F8A86180B168
:1017F0002E82260AE4B202230093284603AB03227A
:101800000E218DF80C608DF80D40FFF76DFE04B0D1
:1018100070BD0446688228820646ECE7F8B5FF29C9
:10182000C1F38113C57F067FC377C1F3011E01F0A9
:1018300003028CBF002301230446C1F38107827792
:10184000837380F81CE0477702220E21AD1BFFF75F
:10185000B5FEA369B5FA85F56D096BB1E37F227F0B
:101860009B1AB3FA83F35B09AB4205D0218A204669
:10187000BDE8F840FFF7A4BFF8BD00BF70B5012375
:101880000446FFF7A7FE054680B1A18C2046FFF76E
:10189000C5FF218A2046FFF793FF94F914600122C7
:1018A000F3B20E212046FFF789FE2675284670BD4B
:1018B00083698BB110B5044600F0CCFD236AC01AD1
:1018C000B0F5967FF8D305220E212046FFF72EFFB4
:1018D00000F0C0FD206210BD704700BF038A8B423C
:1018E00046D9F0B5447D160C150A85B0F6B2EDB2B6
:1018F0005FFA82FE5CB104FB06F604FB05F504FB0F
:101900000EFEC6F30726C5F30725CEF3072EC77FC5
:10191000037FBB4232D0836903EB8103120E1F4465
:101920003CBBD2B23A70077FDE55427F9D54827F26
:1019300003F802E0C47F027F944224D004221546BB
:10194000062611FB05F18DB2044619462F120DF142
:101950000A008DF809508DF8087000F095FB00968C
:10196000204602AB04220E21FFF7BEFD05B0F0BDFC
:10197000704704FB02F2C2F30722D3E7826901EB4E
:1019800041031344D0E7032215460526D9E700BFDB
:101990004175704790F8392090F83800101A704758
:1019A00090F8383090F839209A4286BF1B18187E7C
:1019B0004FF0FF30704700BF704700BF38B5054695
:1019C000B0F85E0090B195F85D301446C3F1210285
:1019D00094420CD805F13B001844224600F054FB19
:1019E00095F85D30234485F85D30204638BD0120F0
:1019F00014462871EEE700BFB0F85E306BB190F886
:101A00005D30202B07D8C218013380F85D300120EB
:101A100082F83B107047012303710020704700BF1C
:101A20000023426980F8383080F8393080F85C3023
:101A300080F85D3080F85E3080F85F3006CA30B4E0
:101A40000D68046943662A4383660A60A37042698D
:101A500090F861301649146813441D7A5B7B01EBE2
:101A6000C5051B026D6803F4E06343F064032B605B
:101A700090F8623013449D7CDB7D01EBC5011B02B5
:101A8000496803F4E06343F064030B602168536822
:101A9000194205D003692C225A70036904229A71F5
:101AA000036920225A71036980229A7030BC704702
:101AB000848D000010B50269D378DBB2D9060446E4
:101AC0003DD510215806D17038D503F0040303F03A
:101AD000FF02002B51D03D49626E00230B7084F849
:101AE0005D30002A5BD0904794F85D30002B56D0D3
:101AF0002369D0229A70236994F83B201A712369D4
:101B0000012284F85C200222DA7010BD304B84F888
:101B100060009C424AD02F4B9C4252D094F839101E
:101B200013791F29DBB207D82848007820B1601844
:101B3000013184F8391003760223D37010BD5906A1
:101B4000C3D4917801F0100101F0FF000029DDD02D
:101B500013F001031ED194F85C1094F85D008842E4
:101B600081BF4B1C091984F85C3091F83B3013712C
:101B70002369D0229A702269DEE7236984F839202C
:101B8000C0229A702369114A197901211170022229
:101B9000DA7010BDC023937022691379CCE701225B
:101BA000002384F85D2084F83B30A1E7626994F853
:101BB0006130094913440322187A00F05FFB22695F
:101BC000ACE7626994F861300449F3E7749EFF1F43
:101BD0003488FF1FA088FF1F3D1C0000491C000027
:101BE0000369DB7803F0200373B190F860300133B0
:101BF000DBB2012B80F860301AD9426990F861306D
:101C00001344187A00F0B6BB70B5426903F0FF05C3
:101C100090F8613013440446187A00F0ABFBA36ED1
:101C20005BB184F8385094F83900BDE8704018472B
:101C300090F85F30002BE0D0704770BD0148FFF78F
:101C4000CFBF00BF3488FF1F0148FFF7C9BF00BFE7
:101C5000A088FF1F2DE9F047374FDFF8E0903B6881
:101C6000026982B006460093DDF800800021C82595
:101C7000D3789B065BD53B680193019BC8EB0303BC
:101C80000F2BF5D949B1102BF2D000209070336999
:101C900080229A7002B0BDE8F087726996F86130D0
:101CA00013440521187A00F0CFFB726996F8613071
:101CB0001344012193F812A0504600F0C5FB0924FB
:101CC0000021504600F0ACFB2B46013BFDD1012129
:101CD000504600F0A5FB2B46013BFDD1013CEFD166
:101CE000706996F8611001444FF4C8720C7A4B7B0E
:101CF00009EBC4011B02496803F4E06343F0640389
:101D00000B6096F862300344997CDB7D09EBC101DE
:101D10001B02496803F4E06343F064030B60013A7B
:101D2000FDD13269D3789B064FF00101A3D4012085
:101D300002B0BDE8F08700BF789EFF1F848D0000D1
:101D4000F0B503691222DA700269937803F0200378
:101D500085B004460D46002B5ED0B42393703C49F9
:101D600022690B680093009E05E00B680193019BBC
:101D70009B1B042B42D8D37803F0200303F0FF0011
:101D8000002BF2D094F85D30002B31D04FF0000ED4
:101D90004FF0020C04EB0E0393F83B3013710B6809
:101DA0000393039F206907E09B060DD50B68029300
:101DB000029BDB1B052B28D8C378DBB203F00202A1
:101DC00002F0FF06002AEFD080F803C02669F378FE
:101DD000DBB2DF0632462DD49F062BD5DB0731D48C
:101DE0000EF1010E94F85D305FFA8EFE7345D1D886
:101DF00000201DBB002384F85E3004E0907023694E
:101E000080229A70042005B0F0BD8670236980227C
:101E100004209A7005B0F0BD03F0FF06FFF71AFF2B
:101E200010B9042005B0F0BD236984F85F60B022CA
:101E30009A7094E78023B3700420DAE72669802340
:101E4000B370D7E7BEF1000F0CBF02200320F6E706
:101E5000789EFF1F2DE9F04106690025122780F8C2
:101E6000385080F83950F770D0F810C09CF802E074
:101E70000EF0200E88B00446884615461E46BEF178
:101E8000000F49D0B4238CF80230784B21691A68CE
:101E90000092DDF800E006E01A6801920198CEEBAE
:101EA0000000042830D8C87800F0200000F0FF07B8
:101EB0000028F1D04FEA480242F00102D2B20A7182
:101EC0001A680292DDF808E0206906E01A680392B9
:101ED0000399CEEB010105292AD8C17801F002014E
:101EE00001F0FF070029F1D04FF0020C80F803C089
:101EF0002269D17811F0110722D12DBB002E0CBF21
:101F0000A0238023937003E08F70236980229A704E
:101F1000384608B0BDE8F0810EF0FF07FFF79AFEE3
:101F20000028F5D0236984F85F70B0229A70ACE77E
:101F300087702369802238469A7008B0BDE8F08126
:101F4000802393700027E3E7012D75D0A0219170C5
:101F500021690A79BE4667464FF0A80C1A680492B8
:101F6000049805E01A680592059A121A052A4AD8BB
:101F7000CA7802F0020202F0FF08002AF2D0CF7005
:101F80002169CA78D2B212F0100F08465AD19206CF
:101F900058D5013DEDB2012D49D0BEF11F0F3BD9FF
:101FA0000A79012DDAD11A680692069D05E01A68B1
:101FB0000792079A521B052A46D8C27802F00202FD
:101FC00002F0FF01002AF2D00223C3702269D37805
:101FD000DBB2D9063AD49B0634D5B023BEF11F0F2D
:101FE00093703FD8226904EB0E0312791A760EF132
:101FF000010E5FFA8EFE16B1236980229A7084F872
:1020000039E0774684E781F80280236980229A705C
:10201000774684F839E07BE704EB0E0291F8048000
:1020200082F818800EF1010E5FFA8EFEB9E781F892
:1020300002C021690846B0E7A82191702069BE4618
:102040000279B0E7774663E78170DEE71021C823A5
:10205000D170013BFDD12269937803F0F7037746F5
:10206000937055E723691B79C5E700BF789EFF1F72
:102070000148FFF71FBD00BF3488FF1F0148FFF76D
:1020800019BD00BFA088FF1F844641EA000313F07A
:1020900003036DD1403A41D351F8043B40F8043B6F
:1020A00051F8043B40F8043B51F8043B40F8043B32
:1020B00051F8043B40F8043B51F8043B40F8043B22
:1020C00051F8043B40F8043B51F8043B40F8043B12
:1020D00051F8043B40F8043B51F8043B40F8043B02
:1020E00051F8043B40F8043B51F8043B40F8043BF2
:1020F00051F8043B40F8043B51F8043B40F8043BE2
:1021000051F8043B40F8043B51F8043B40F8043BD1
:1021100051F8043B40F8043B403ABDD2303211D371
:1021200051F8043B40F8043B51F8043B40F8043BB1
:1021300051F8043B40F8043B51F8043B40F8043BA1
:10214000103AEDD20C3205D351F8043B40F8043B71
:10215000043AF9D2043208D0D2071CBF11F8013B6F
:1021600000F8013B01D30B8803806046704700BF35
:10217000082A13D38B078DD010F003038AD0C3F144
:102180000403D21ADB071CBF11F8013B00F8013B26
:1021900080D331F8023B20F8023B7BE7043AD9D3E5
:1021A000013A11F8013B00F8013BF9D20B780370BA
:1021B0004B7843708B78837060467047704700BFE0
:1021C00010B40F4B53F8302092F880422CB1012309
:1021D00069B182F8803010BC704703EBC0035B68C4
:1021E0001A6841B922F002021A6010BC704782F8E6
:1021F000003110BC704742F003021A6010BC7047F7
:10220000848D00001C4A02EBC00301295B6811D0D9
:1022100004291BD052F83000002280F8802229B116
:10222000022920D0032922D01A6070474FF480720F
:102230001A60704752F830004FF4A27280F8801292
:102240001A601A6822F020021A60704752F83010A3
:102250004FF4A272012081F880021A601A6842F0DD
:1022600020021A60704740F203121A6070474FF460
:1022700081721A60704700BF848D0000212848D801
:10228000F8B5042A44D8DFE802F0484B4E03450075
:102290004FF410262B4B03EBC0030D465C682168FE
:1022A00011F4E06148D0284B284A2949C3F89C2101
:1022B00004F140422748C3F8A411A2F59221264F09
:1022C000C3F8A0017C292548C3F8A871C3F8AC0164
:1022D0002CD9A2F594237C2B2AD9A2F596237C2B0A
:1022E00028D9A2F598237C2B29D9A2F59A227C2AF9
:1022F00027D81B4872B6236823F4702343F08072FA
:10230000C4F384011643236040F82150266062B66E
:10231000F8BD70474FF43026BCE74FF40026B9E70C
:102320004FF44026B6E74FF42026B3E70D48E1E727
:102330000D48DFE70D48DDE7FFF764FFB3E70C4822
:10234000D8E7F8BD848D00000082FF1FD187FF1FF2
:102350007987FF1FA587FF1F4D87FF1F2187FF1F5D
:10236000E489FF1F0C89FF1F4489FF1F9489FF1F09
:10237000C489FF1F1A4B03EBC00010B4426802F17E
:102380004043A3F592217C2923D9A3F594217C29EC
:102390000DD9A3F596217C291FD9A3F598217C2975
:1023A00019D9A3F59A237C2B11D80E4C00E00E4CC2
:1023B00072B613680D4823F08773C2F3840123F4C7
:1023C000803343F08073136044F8210062B610BC80
:1023D0007047074CECE7074CEAE7074CE8E700BF1B
:1023E000848D0000E489FF1F4489FF1FBD21000088
:1023F0000C89FF1FC489FF1F9489FF1F30B4054B50
:10240000054D064C002210211A602A6020601960D8
:1024100030BC704714D0034004D0034000D00340C8
:10242000212801D8FFF7CCBE704700BF212806D86D
:10243000044B53F8303093F80002C0B270470020CC
:10244000704700BF848D0000212801D8FFF7DABE55
:10245000704700BF72B60C490C4B0D4A1B680868E8
:10246000126862B6520102D5322B88BF0130094989
:10247000C3F5EA334FF47A72BF33A1FB031302FBB7
:1024800000F000EB93107047789EFF1F18E000E00B
:1024900004ED00E0898888882DE9F843054672B686
:1024A000204F214B214A1B683C68126862B65201DA
:1024B00002D5322B88BF013495B3C3F5EA331C4EE5
:1024C000DFF86490DFF86480BF334FF47A72A6FBC4
:1024D000031302FB04F404EB931472B6D9F8001052
:1024E0003A68D8F800E062B6C1F5EA33BF33A6FB1C
:1024F00003031EF0806FC4EB93134FF47A7002D085
:10250000322988BF013200FB0233B3F57A7F04D34E
:10251000013D05D004F57A74DFE701F087F9DCE7C7
:10252000BDE8F883789EFF1F18E000E004ED00E0AE
:1025300089888888F8B52D4B2D49DFF8D0E0DFF881
:10254000D0C02C4E2C4D2D4C2D4A2E4F4FF4000058
:1025500018604FF0807018604FF0007018604FF0F6
:10256000806018604FF00060186000200860282329
:102570004EF6FF71CCF80010CEF8003033601360D7
:102580002B6023603B60B3629362092245F8242CE0
:10259000C4F8D80F05F57F65C7F8D41F07F5FF27E6
:1025A00007F5FA67C6F8F83F2B6006F5FF26C4F872
:1025B000D42F05F5FD2504F5FF24386006F2F476E6
:1025C0001148316005F5FF6504F5FD642B6023605B
:1025D000026001F079F91920FFF75EFF00F05CFE60
:1025E00040F21310BDE8F840FFF756BF08E100E0E5
:1025F0000480034014800340248003402C80034067
:102600001C8003403480034000800B400C8003405A
:1026100008800340431E032B14D872B60A4951F8B0
:10262000230068B170B4094C058834F8132046685B
:1026300041F82360521B24F8132062B670BC704727
:1026400062B6704700207047D49EFF1F58A1FF1F3D
:10265000013803280BD872B6074B53F8203043B12A
:1026600000205B680130002BFBD162B67047002070
:1026700070471846F9E700BF289FFF1F30B472B6B5
:102680002B4A13781D0706D52A4B196A002936D024
:10269000996A002941D053781C0706D5254B196C3F
:1026A00000293ED0996C002939D09378190705D5B7
:1026B000204B196E002936D0996E89B1D3781B074B
:1026C00007D51C4BD3F880207AB3D3F8882011218A
:1026D0003AB162B6184B00221A7030BC00F068BEE6
:1026E0000D21154C154D227843F8315003EBC103F1
:1026F0000830013A5860227062B630BC704704223C
:102700000D4C0F4D217843F8325003EBC2030830D3
:102710004A1E5860227062B6EFE70521E1E7092101
:10272000DFE70822ECE70C22EAE71022E8E700BF27
:10273000C08E00000080FF1F519FFF1FC800400097
:1027400088004000431E032B1DD81B4A400140F067
:10275000100030B4104472B6184CE25C032A1BD847
:10276000DFE802F00212151703220D88E25410F080
:10277000080F14BFC823882343EA054308310360C8
:10278000416062B630BC704708300222EDE7052296
:10279000EBE708300422E8E7094A52F8230038B191
:1027A000084A52F82300416042F8231062B6E9E774
:1027B00042F82310034AF7E70080FF1F609FFF1FC6
:1027C000289FFF1F389FFF1F2DE9F04FDFF80CB344
:1027D000DFF80CA387B044E0AB4F4FEA930807EB58
:1027E000C809013ED9F8042003F00803F6B2A2F1AB
:1027F000080003F0FF04002B40F0028157F8383046
:102800001B0C99B222F8081C002B00F0F0809F4BA3
:1028100022F8064C42F8044C53F82620002A00F017
:10282000C5829B4D55F8263058609A4C45F82600D5
:1028300034F81630194424F8161000F099FD0028D9
:1028400000F0AD82944A954B19F0080F00F1080092
:1028500018BF1346C9F8040047F8383008238BF82E
:1028600000309BF80040E4B261071AD58C4B1B780E
:10287000A3B18C490A7802F0FF0322B1013BDBB21D
:102880000B7003B900BE88490A7802F0FF032AB131
:10289000013BDBB20B70002B00F0578204238BF856
:1028A000003004F0080303F0FF02002B00F0CC809E
:1028B0009AF80030DBB21E098ED19C08DFF8C8916F
:1028C00059F8342009EBC401C2F38302013A496884
:1028D0000C2A00F28880DFE802F07C7C86868686FF
:1028E00086864786868607000868704D4A68704F5E
:1028F000704E286081B240F28160674B6A604FF091
:10290000010E0022814249F834303A60C9F81020A3
:10291000C9F8182086F800E05B4C00F2E380B1F5BE
:10292000D06F80F04683B1F5817F00F0FC8200F229
:102930008D82802900F07783822940F0FA82A9886D
:1029400001F07F01042900F2F4825B485B4C8900AE
:102950000844227062700278930740F1588484F82A
:1029600000E04FF0020E42E3514F3A6832B3544B4D
:10297000504E5449188834780D784028864645F0E2
:10298000020828BF4FF0400E002C84F00104347080
:10299000CEEB00000CBF8824C82409EBC80680B227
:1029A00085F0010544EA0E447260188049F8384009
:1029B00072440D70002800F045813A603B4B1A8844
:1029C000B2F5A06F0FD100219A7859703E4B1A7062
:1029D00009E0364A108842F22102904200F0378125
:1029E0002D4A49F83420394A0123137036E72A4A20
:1029F0002A4B19F0080F18BF134647F838302DE757
:102A000000F0D6FC324A334952F82630002B00F051
:102A1000D18158688C5D42F8260003F10802C9F89C
:102A20000420032C05D8DFE804F02C02292602221A
:102A30008A551A8819F0080F0CBF8823C82343EA67
:102A4000024347F8383009E7E00700F181812106A9
:102A500000F1F281A20706D51F4A2049137802200F
:102A6000DBB213700870E30602D51C4B10221A70FB
:102A700007B0BDE8F08F04228A55DAE705228A55AF
:102A8000D7E703228A55D4E70080FF1FD49EFF1F9B
:102A9000809EFF1F58A1FF1FC80040008800400013
:102AA0005C9FFF1FE59EFF1F649FFF1F489FFF1F46
:102AB0007C9EFF1FE49EFF1FC0200740549FFF1F06
:102AC000909EFF1F509FFF1F9820074094200740B3
:102AD000289FFF1F609FFF1F88200740802007401E
:102AE0009020074042F22100814200F02A8100F24A
:102AF000D880B1F5086F00F07682B1F5106F40F024
:102B00001882226AB349A8780870120600F13A8345
:102B1000D9F82820B049130600F10C83D9F83020E9
:102B2000AD49150600F10183D9F83820AA491406E9
:102B300000F1F682D9F84020A749100600F14A8337
:102B4000D9F84820A449120600F13F83D9F8502053
:102B5000A149130600F13483D9F858209E4915067F
:102B600000F12983D9F860209B49140600F11E83E7
:102B7000D9F868209849100600F11383D9F870201D
:102B80009549120600F10883D9F878209249130676
:102B900000F1FD82D9F880208F49150600F13183BC
:102BA000D9F888208C49140600F12583D9F89020A3
:102BB0008949100600F11983D9F898208649120630
:102BC00000F10D838548864A864901908648874DE5
:102BD000874C049700230596029580460F461646BB
:102BE0001D460394306828B1446800F0E1FB20469C
:102BF000002CF9D100233360029B38681A46002369
:102C000042F8253028B1446800F0D2FB2046002C61
:102C1000F9D100223A60019A98F80030114600225A
:102C200041F8042B039A0191023B4FF0000122F876
:102C30001510032B00F22B81DFE813F07001250142
:102C400070012501BEF1400F18BF0022B5E6694AA8
:102C50000D784878157050708D78C8789570D07060
:102C600010680D79157186284D79897955719171A2
:102C700000F09B816049614E0A78307882F001054E
:102C8000002842F002020D700CBF8821C82149F8CB
:102C9000321009EBC20280F0010000213070516057
:102CA0009EE642F22120814240F0CB81544B554CAC
:102CB0005549A8781D682560CDF804E0087000200B
:102CC00002908046844604464B490D7845F0020E3A
:102CD00009EBCE030393019B002B039B5C600CBFAD
:102CE0008824C82444EA080385F0010449F83E30EA
:102CF00032700C70DFF8E0E0404BDFF8FC80002819
:102D000040F01E81BCF1400F1BD144F0020C09EBD6
:102D1000CC03029CDFF8C0E05C60002A40F0268112
:102D2000020442F088029DF804304EF83C2004442E
:102D300033700D702346402803D10020334A3B6096
:102D40001080334A012313704DE600F09DFCA5E589
:102D5000214B2F4828491A614FF0020E80F800E0FD
:102D60002C4F0A702C49196099602C4E2C4D2D4C1B
:102D70009A610D213970FF213170DFF8B8E02970B8
:102D80002270294D294A8EF800109F27012406F849
:102D9000047C5D600470DA6007B0BDE8F08F244AFF
:102DA00047F8380013780133137057E543F82600CD
:102DB0000E4D3AE58B5D032B00F2F08001A252F834
:102DC00023F000BF5D2800005D280000812E000078
:102DD0007B2E00005C9FFF1F0080FF1F389FFF1F9E
:102DE000D49EFF1F289FFF1F609FFF1F809EFF1F15
:102DF00058A1FF1F60A1FF1F509FFF1FE49EFF1FF0
:102E0000789EFF1F68A1FF1F749FFF1F909EFF1FEA
:102E100094200740C02007408800400088200740D9
:102E20008020074098200740949EFF1FE89EFF1FC8
:102E3000519FFF1F8C200740C149C24B80220D20AB
:102E400008701A70A2077FF50EAE05E640F2023256
:102E5000914240F0EE80A98801F07F01042968D8F2
:102E60006A88002A65D1B648CDF804E08900084494
:102E7000017841F00201017021E701238B55EDE457
:102E800000238B55EAE44FF0010388F80030013548
:102E9000042D06F1040607F1040708F101087FF488
:102EA000A1AEA94CA94B2278A94D049F059E0021F3
:102EB00029701A70130700F105816278A549DFF8BF
:102EC000A0820A7010074FF00001C9F83010C9F84D
:102ED000381000F1E080A049A2780A700021C9F8FA
:102EE0005010C9F858101107DFF8748200F1018101
:102EF000E2789A499A4C0A7000211207C9F87010BA
:102F0000C9F8781000F1B08033780193002183F084
:102F10000102C9F89010C9F89810D0E64FF00003EC
:102F200088F80030B3E7A98801F07F01042940F256
:102F30008D80834A0F2313708A4A0123137052E550
:102F400040287FF6E2AE44F002040EEBC401029E7C
:102F50004E60BAB19DF80410834A19703346403868
:102F600088F8005040334EF83420E7E69DF80430EE
:102F700033700204029B0D7042F0C80203444EF805
:102F80003C20D8E69DF804101970029B774A88F817
:102F90000050403840334EF83420CFE619F0080F87
:102FA0000CBF022303238B5558E4714A0F21117083
:102FB00060E6704A5468002CBBD06888B5F804E01D
:102FC00003E00C325468002CB3D013888342F8D14C
:102FD00053887345F5D1000A03280CBF94F800E02C
:102FE000B2F808E003E0644A644C12782270E88882
:102FF000704580F03F8162490D784028844645F055
:10300000020E28BF4FF0400C04EB0C0309EBCE027C
:10301000029301235460CCEB00004FEA0C480022DD
:103020000193C8245EE6554C4FF0020E2270627088
:10303000DDE7B1F5A06F7FF47CAF0123002201939F
:103040003DE642F221329142F7D072E76A88002AC7
:103050007FF46FAF3A48CDF804E089000844017866
:1030600021F0020101702AE600F082F9002800F048
:10307000EF8008303D4AC4F88400C4F8802000F096
:1030800077F9002800F0DE800830374AC9F88C0054
:10309000C9F8882038E700F06BF9002800F0C080FC
:1030A0000830324AC8F84400C8F8402000F060F9FF
:1030B000002800F0AF8008302B4AC9F84C00C9F84E
:1030C000482008E700F054F9002800F0CD800830CF
:1030D000264AC9F82400C9F8202000F049F9002840
:1030E00000F0BC800830204AC9F82C00C9F828201C
:1030F000E3E600F03DF9002800F09E8008301B4A0E
:10310000C8F86400C8F8602000F032F9002800F028
:103110008D800830144AC9F86C00C9F86820E7E6C9
:10312000C86B083800F044F904E5486B083800F033
:103130003FF9F9E4C86A083800F03AF9EEE400BF54
:10314000C020074080200740C08E0000C4200740F8
:10315000519FFF1FC8200740CC200740D0200740C8
:103160000080FF1F94200740C800400088004000F6
:10317000E59EFF1FC48E00005C9FFF1F549FFF1F32
:10318000509FFF1F606A083800F012F9C0E4C86F52
:10319000083800F00DF9FDE4486F083800F008F930
:1031A000F2E4C86E083800F003F9E7E4486E083826
:1031B00000F0FEF8DCE4C86D083800F0F9F8D1E45E
:1031C000486D083800F0F4F8C6E4C86C083800F020
:1031D000EFF8BBE4486C083800F0EAF8B0E4D1F846
:1031E0009C00083800F0E4F8ECE4D1F894000838CA
:1031F00000F0DEF8E0E4D1F88C00083800F0D8F8F0
:10320000D4E4D1F88400083800F0D2F8C8E44FF0D4
:10321000020EECE62A78C9F8480001322A705AE614
:103220002A78C8F8400001322A703FE72A78C9F8A6
:10323000680001322A705BE62A78C8F86000013223
:103240002A7061E72A78C9F8880001322A705BE6A3
:103250002A78C4F8800001322A7010E72A78C9F869
:10326000280001322A7028E62A78C9F820000132A5
:103270002A7032E7BEF1400FF44628BF4FF0400CF1
:1032800004EB0C0302930123CCEB0E004FEA0C4835
:103290000022019318E500BFF8B500F099FD294B15
:1032A00029482A4C2A4F2B4DDFF8BCC0DFF8BCE080
:1032B000294E00221A605A609A60DA601A615A61D7
:1032C0009A61DA611A625A629A62DA621A635A631E
:1032D0009A63DA631A645A649A64DA641A655A65FE
:1032E0009A65DA651A665A669A66DA661A675A67DE
:1032F0009A67DA67C3F880200168C3F8842041F434
:1033000080210160C3F307212170C3F307401349F3
:1033100038701B0E2B70FF238CF80030104D8EF888
:10332000003010480B700123337084F8642070263D
:103330004FF40074102207F82C3C2E70046081F8C2
:10334000F820F8BD0080FF1F348004409C20074017
:10335000B0200740B42007409420074010200740C9
:1033600049E400E008E100E08020074088200740B1
:1033700072B60D480268B2FA82F30B2B10DC4FF0E4
:103380000041D94022EA0102026062B6074803EB1D
:10339000C303DB00C2180021C150104651607047C2
:1033A00062B60020704700BFEC89FF1FBC83FF1F7F
:1033B0000D4B0E4AC31AA2FB03231B090B2B0CD87F
:1033C0000B4A127852B972B60A484FF000410268AF
:1033D00021FA03F31A43026062B67047064A127874
:1033E000002AF0D0FFF74AB9BC83FF1F398EE338BB
:1033F000519FFF1FEC89FF1F5C9FFF1F38B50F4DCA
:10340000286878B143880288C118013393420C7A46
:1034100002D24380204638BDFFF7CAFF0023204672
:103420002B6038BD064B1B782BB10320FFF7F2F859
:1034300028600028E6D14FF0FF3038BD709FFF1F95
:103440005C9FFF1F10B5094C206818B143881844D1
:10345000007A10BD064B1B782BB10320FFF7DAF87A
:1034600020600028F2D14FF0FF3010BD709FFF1F89
:103470005C9FFF1F044B054A1B6890881BB11A888C
:103480005B88D31A18447047709FFF1F58A1FF1F15
:103490000B4B1B789BB110B50A4C206848B1FFF765
:1034A00087FF002303202360FFF7B4F830B1FFF754
:1034B0007FFF0320FFF7AEF80028F8D110BD70475A
:1034C0005C9FFF1F709FFF1F2DE9F04FDFF8F89002
:1034D00083B0012289F80020019169B3DFF8EC8004
:1034E000364F019E8346D8F80000B0B3344D44886F
:1034F000C4F14001B14228BF314604EB010E002265
:103500001FFA8EFE2A70761AA0F802E000F1080277
:1035100051B1013C224459441BF8014B02F8014FC0
:103520008B45F9D1B0F802E0BEF13F0F0BD8254A28
:1035300005211170002ED6D10198002389F80030A2
:1035400003B0BDE8F08F4022028001460420FFF75F
:10355000F9F80022C8F80020E9E73A782AB3184DB4
:103560004DF2E9044FF0010A07E0013C16D02A7839
:10357000A2B900F05BF93A78BAB10420FFF768F815
:103580000728F2D889F800A0FFF7F2FEC8F800007B
:103590000028ACD10C4B013C1870E8D101234FF04E
:1035A000FF302B7003B0BDE8F08F00234FF0FF30E9
:1035B00089F8003003B0BDE8F08F00BF5C9FFF1FAB
:1035C0006C9FFF1F649FFF1F659FFF1F689FFF1F6A
:1035D00000B583B002AB012103F8010D1846FFF7D7
:1035E00073FF03B05DF804FB38B50E4D0E4C286830
:1035F0000123237028B1408800232370C0F14000CC
:1036000038BD0A4B1B7813B90020207038BD042048
:10361000FFF71EF80728F7D8FFF7AAFE2860002852
:10362000E9D1F1E7689FFF1F659FFF1F5C9FFF1FA8
:10363000F8B5114B1B788BB1104E114D3468012732
:103640002F7064B10F4A63880027177021462380CA
:103650000420FFF777F8376000232B70F8BDFFF7E1
:1036600087FE084B28B1014604201C70FFF76AF85A
:10367000F2E71F70F0E700BF5C9FFF1F689FFF1F0E
:10368000659FFF1F649FFF1F38B50E4B1B7873B9F2
:103690000D4C216861B103F0FF054B880B800420BD
:1036A000FFF750F8256038BD084B01221A7038BD6D
:1036B000FFF75EFE0028F7D00146BDE83840042041
:1036C000FFF740B8659FFF1F689FFF1F649FFF1FA4
:1036D000F8B50E4671B17AB10746144600253B682D
:1036E00016F8011B1B6838469847013C0544F6D183
:1036F0002846F8BD0846F8BD1046F8BD00B5064A94
:10370000036812885B6883B001A9ADF80420022227
:10371000984703B05DF804FB948E000010B5044692
:10372000006801F077F9204610BD00BF38B5436846
:103730008B4201D3012038BD0D460446013100689B
:1037400001F0F4FC0028F6D0A36884E82100002BE7
:10375000F0D10370EEE700BFF8B50446154632B964
:10376000036803B11A700023A3602046F8BD0E461B
:103770001146FFF7DBFF074648B9206810B101F09A
:1037800049F9276000236360A3602046F8BDA56067
:103790003146206801F0D4FEE7E700BF38B50023CA
:1037A0000446036043608360037341B108460D46DD
:1037B00001F026FF294602462046FFF7CDFF2046AE
:1037C00038BD00BF814203D08A680968FFF7C4BFD3
:1037D000704700BF83688B4203D9006808B1084472
:1037E0007047024900230B7008467047759FFF1F02
:1037F00008B5FDF715FBFDF78FFB00F017F8FAE7AA
:10380000FFF746BEFFF71EBEFFF7F8BDFFF732BE5B
:10381000FFF70EBFFFF7E8BE08461146FFF754BE9C
:103820000846FFF7D5BE00BF704700BF38B5224C31
:10383000237803B138BD01232370FFF71BFE70BB53
:1038400000F01EF940BB00F0B1F910BB00F044FAE3
:10385000E0B900232370EFF30583002BEAD1EFF3E7
:10386000108172B6154B1868E0B1154C2278CAB9B0
:1038700045691D6001232370C5B1AA6101B962B613
:1038800000254577836898472570D3E700F0DEFB75
:10389000DFE700F0D9FBD9E700F0D4FBD3E7FFF76F
:1038A000C3FFCDE70029C5D162B638BD054B1D6009
:1038B0000029E5D1E3E700BF769FFF1F18A1FF1F96
:1038C0001CA1FF1F14A1FF1F30B42948294A2A4B0D
:1038D0002A4D6024E121047011701B78284C082BBC
:1038E00030D00A2B2748284937D00C2B0CBF352263
:1038F0005D2212232A60236002600B60234B24495F
:103900001B78244ABBB101230B601360224B23496F
:103910001B78234A012B26D9042B0FD9082B1ED93B
:10392000102B94BF862387230B6013601D4B01224D
:103930001A7030BC70470B601360E7E784230B609C
:103940001360F3E700F58E200F490830212213237E
:103950002A60236002600B60D0E73922F7E78523F5
:103960000B601360E2E780230B601360DEE700BFAB
:103970000040074001400740008AFF1F08B0034095
:103980000CB0034008B00B400CB00B40789FFF1FF9
:1039900020B0034020B00B40018AFF1F24B0034039
:1039A00024B00B40779FFF1F08B5104C08E0236838
:1039B00059050DD423681A050FD42368DB0411D4EC
:1039C00023685803F3D5FEF7FFFE23685905F1D5A8
:1039D00000F066F823681A05EFD500F0F7F82368C1
:1039E000DB04EDD500F088F9EAE700BF348004403D
:1039F00008B5FFF7D9FF00BF014B10221A807047AE
:103A000000200540704700BF094908B50B6830B178
:103A10006A461844A2F58052904202D208601846C5
:103A200008BD00F0C1FF0C2303604FF0FF3008BD5C
:103A3000048AFF1FF0B44D1E2E46002400E001341E
:103A4000B0FBF2F302FB1300092800F130078ABF34
:103A50003730F8B2C0B206F8010F1846002BEED18D
:103A60000A1953704CB1107815F8016F28700133A2
:103A7000E01A834202F80169F5DB0846F0BC7047A2
:103A8000054A064B10781B78C0B2DBB2984238BFAB
:103A90004030C01A704700BF809FFF1F819FFF1FEB
:103AA000F0B4384B1A7912F0300F2CD072B6997DE1
:103AB00001F0FF0200293DD062B6334F3349387818
:103AC0000D78334E1C46C0B2EDB2431C402BE17959
:103AD00028BF0023AB4202F1FF32C9B21CBFF15430
:103AE000184612F0FF02F0D12A4B1B68C2B23A709E
:103AF0004BB1A84236BFC5F14005401B40192728ED
:103B0000C4BF01221A701F49CA78D2B2150616D452
:103B100052060DD51B4B1B795B0609D51E4B1F4961
:103B20001B6800220A7003B11A70164B3C22DA702F
:103B3000F0BC70474022D9795A7462B6E3E70B793A
:103B40001C06E5D5164B174E1C783378E4B2DBB271
:103B50009C420ED0144D01E0A3420AD00133402B09
:103B600028BF00230879E85CC0B2C871087D072827
:103B7000F2D9DBB2034933700B79180644BF7C23BA
:103B8000CB70C5E700A00640809FFF1F819FFF1FED
:103B9000C49FFF1F7C9FFF1F08A0FF1F04A0FF1FE3
:103BA0000CA0FF1F05A0FF1F849FFF1F054A064BA7
:103BB00010781B78C0B2DBB2984238BF4030C01AD0
:103BC000704700BF80A0FF1F15A0FF1FF0B4384B47
:103BD0001A7912F0300F2CD072B6997D01F0FF02E5
:103BE00000293DD062B6334F334938780D78334ED3
:103BF0001C46C0B2EDB2431C402BE17928BF002324
:103C0000AB4202F1FF32C9B21CBFF154184612F0A8
:103C1000FF02F0D12A4B1B68C2B23A704BB1A842E6
:103C200036BFC5F14005401B40192728C4BF0122FB
:103C30001A701F49CA78D2B2150616D452060DD58D
:103C40001B4B1B795B0609D51E4B1F491B680022C5
:103C50000A7003B11A70164B3C22DA70F0BC704740
:103C60004022D9795A7462B6E3E70B791C06E5D590
:103C7000164B174E1C783378E4B2DBB29C420ED060
:103C8000144D01E0A3420AD00133282B28BF0023A2
:103C90000879E85CC0B2C871087D0728F2D9DBB2A8
:103CA000034933700B79180644BF7C23CB70C5E7FA
:103CB00000B0064080A0FF1F15A0FF1F40A0FF1FFF
:103CC00010A0FF1F84A0FF1F14A0FF1F88A0FF1FCC
:103CD00081A0FF1F18A0FF1F054A064B10781B7814
:103CE000C0B2DBB2984238BF4030C01A704700BF44
:103CF00090A0FF1F91A0FF1F30B42B4B1A799406A0
:103D00001FD52A48DA790378294901333F2B0978EE
:103D1000C8BF00238B42D2B203D0264CD9B2E254A2
:103D20000170254A116861B1244A1278D2B29342D7
:103D300036BFC2F140029B1A9B18272BC4BF012338
:103D40000B70194AD378DBB2180611D45A060DD578
:103D5000154B1B795B0609D5194B1A491B680022C4
:103D60000A7003B11A70104B2C22DA7030BC704705
:103D700011790906EAD5144910480C780178C9B2BE
:103D80008C420DD04A1C272A84BF00210A460F4DC1
:103D9000054C98BFD1B2AA5CD2B2E2710170D5E7EE
:103DA0006C21D170D2E700BF00C0064090A0FF1F79
:103DB00091A0FF1FBCA0FF1F8CA0FF1FFDA0FF1F35
:103DC00000A1FF1FFCA0FF1F04A1FF1F94A0FF1F65
:103DD00070B584B072B6194B194D1A48702241263D
:103DE0000F2480211A702E701A46047019701378EF
:103DF0001B06FCD5144B186862B6144B144C984241
:103E000098BF00EB800001A998BF40000A22FFF78D
:103E100011FE01A92046002311F8012B01333AB10C
:103E20000A2B20F8022FF7D11623237004B070BD9F
:103E30005B00DBB2237004B070BD00BF0000024025
:103E40000700024006000240080002407F969800EA
:103E5000648AFF1F10B4EFF3108272B6437F33B948
:103E6000017F012907D003290FD00123437702B92D
:103E700062B610BC7047124C2168A1B11149436170
:103E80000B68836108605861EFE70F4C216881B1CE
:103E90000E4943610B688361086058610C4B4FF019
:103EA00080511960E1E7074B416181612060186032
:103EB000DBE7064B4161816120601860EEE700BFDF
:103EC00018A1FF1F14A1FF1F08A1FF1F0CA1FF1FB6
:103ED00004ED00E010B4047F4160022CC26002D007
:103EE00010BCFFF7B7BF836810BC184770B5EFF37D
:103EF000108272B60C4C206880B10C4E00254369CC
:103F0000236073B19D6102B962B6457783689847B3
:103F1000EFF3108272B620680028F0D102B962B6C1
:103F200070BD3360EFE700BF08A1FF1F0CA1FF1FAA
:103F3000FFF7DCBF184A30B41468002C27D00368A0
:103F400021688B420ED2CB1A00218460C1602360AD
:103F5000E06010600223037530BC704711688B422B
:103F6000144608D3A2685B1A0360002AF6D1826067
:103F7000C460A060EEE7D268C2608460E060C5689B
:103F8000CB1A0222A8602360027530BC704784609F
:103F9000C4601060DEE700BF10A1FF1FF8B5224E1D
:103FA00034682CB32368002B3AD1204F1D4604E01F
:103FB0003468ECB12368002B32D1A36803B1DD6013
:103FC00020693360036825751B68BB4221D1037FDC
:103FD0004560022BC46020D0FFF73CFF6368002BD4
:103FE000E6D023602046FFF7A5FF3468002CE1D11E
:103FF000EFF3108372B60E4A00211068116003B906
:1040000062B628B18468FFF795FF20460028F9D1F1
:10401000F8BD224600219847E0E783689847DDE72E
:10402000013B2360E4E700BF10A1FF1FD53E000065
:1040300020A1FF1F024A136801331360FFF7AEBFD0
:10404000789EFF1F704700BF704700BF704700BFDA
:1040500081F0004102E000BF83F0004330B54FEA39
:1040600041044FEA430594EA050F08BF90EA020FA6
:104070001FBF54EA000C55EA020C7FEA645C7FEA39
:10408000655C00F0E2804FEA5454D4EB5555B8BF5C
:104090006D420CDD2C4480EA020281EA030382EACD
:1040A000000083EA010180EA020281EA0303362D5F
:1040B00088BF30BD11F0004F4FEA01314FF4801C32
:1040C0004CEA113102D0404261EB410113F0004F44
:1040D0004FEA03334CEA133302D0524263EB4303FB
:1040E00094EA050F00F0A780A4F10104D5F1200E99
:1040F0000DDB02FA0EFC22FA05F2801841F10001F4
:1041000003FA0EF2801843FA05F359410EE0A5F1C7
:1041100020050EF1200E012A03FA0EFC28BF4CF0F8
:10412000020C43FA05F3C01851EBE37101F00045AE
:1041300007D54FF0000EDCF1000C7EEB00006EEBBB
:104140000101B1F5801F1BD3B1F5001F0CD3490845
:104150005FEA30004FEA3C0C04F101044FEA44529C
:1041600012F5800F80F09A80BCF1004F08BF5FEA23
:10417000500C50F1000041EB045141EA050130BD03
:104180005FEA4C0C404141EB010111F4801FA4F1A6
:104190000104E9D191F0000F04BF01460020B1FAFB
:1041A00081F308BF2033A3F10B03B3F120020CDA33
:1041B0000C3208DD02F1140CC2F10C0201FA0CF011
:1041C00021FA02F10CE002F11402D8BFC2F1200C76
:1041D00001FA02F120FA0CFCDCBF41EA0C0190402C
:1041E000E41AA2BF01EB0451294330BD6FEA040475
:1041F0001F3C1CDA0C340EDC04F11404C4F1200260
:1042000020FA04F001FA02F340EA030021FA04F371
:1042100045EA030130BDC4F10C04C4F1200220FAC8
:1042200002F001FA04F340EA0300294630BD21FA06
:1042300004F0294630BD94F0000F83F4801306BFCC
:1042400081F480110134013D4EE77FEA645C18BFC0
:104250007FEA655C29D094EA050F08BF90EA020F57
:1042600005D054EA000C04BF1946104630BD91EA4F
:10427000030F1EBF0021002030BD5FEA545C05D152
:104280004000494128BF41F0004130BD14F5800491
:104290003CBF01F5801130BD01F0004545F0FE4105
:1042A00041F470014FF0000030BD7FEA645C1ABF3A
:1042B000194610467FEA655C1CBF0B46024650EA71
:1042C000013406BF52EA033591EA030F41F400219D
:1042D00030BD00BF90F0000F04BF0021704730B523
:1042E0004FF4806404F132044FF000054FF00001F8
:1042F00050E700BF90F0000F04BF0021704730B5B9
:104300004FF4806404F1320410F0004548BF40428D
:104310004FF000013EE700BF42004FEAE2014FEAE2
:1043200031014FEA02701FBF12F07F4393F07F4FBD
:1043300081F06051704792F0000F14BF93F07F4FEF
:10434000704730B54FF4607401F0004521F0004132
:1043500020E700BF50EA010208BF704730B54FF0B8
:1043600000050AE050EA010208BF704730B511F0BD
:10437000004502D5404261EB41014FF4806404F1F5
:1043800032045FEA915C3FF4DCAE4FF003025FEA77
:10439000DC0C18BF03325FEADC0C18BF033202EBFF
:1043A000DC02C2F1200300FA03FC20FA02F001FA59
:1043B00003FE40EA0E0021FA02F11444C1E600BFF8
:1043C00070B54FF0FF0C4CF4E06C1CEA11541DBFAB
:1043D0001CEA135594EA0C0F95EA0C0F00F0DEF876
:1043E0002C4481EA030621EA4C5123EA4C5350EA5B
:1043F000013518BF52EA033541F4801143F48013AC
:1044000038D0A0FB02CE4FF00005E1FB02E506F03C
:104410000042E0FB03E54FF00006E1FB03569CF091
:10442000000F18BF4EF0010EA4F1FF04B6F5007F97
:1044300064F5407404D25FEA4E0E6D4146EB060609
:1044400042EAC62141EA55514FEAC52040EA5E5092
:104450004FEACE2EB4F1FD0C88BFBCF5E06F1ED83C
:10446000BEF1004F08BF5FEA500E50F1000041EB73
:10447000045170BD06F0004646EA010140EA020020
:1044800081EA0301B4EB5C04C2BFD4EB0C0541EA42
:10449000045170BD41F480114FF0000E013C00F357
:1044A000AB8014F1360FDEBF002001F0004170BD7B
:1044B000C4F10004203C35DA0C341BDC04F1140494
:1044C000C4F1200500FA05F320FA04F001FA05F220
:1044D00040EA020001F0004221F0004110EBD370ED
:1044E00021FA04F642EB06015EEA430E08BF20EA19
:1044F000D37070BDC4F10C04C4F1200500FA04F3BC
:1045000020FA05F001FA04F240EA020001F000414D
:1045100010EBD37041F100015EEA430E08BF20EAC0
:10452000D37070BDC4F1200500FA05F24EEA020E08
:1045300020FA04F301FA05F243EA020321FA04F037
:1045400001F0004121FA04F220EA020000EBD370EE
:104550005EEA430E08BF20EAD37070BD94F0000FEE
:104560000FD101F00046400041EB010111F4801F22
:1045700008BF013CF7D041EA060195F0000F18BFD3
:10458000704703F00046520043EB030313F4801F0F
:1045900008BF013DF7D043EA0603704794EA0C0FC9
:1045A0000CEA135518BF95EA0C0F0CD050EA4106DF
:1045B00018BF52EA4306D1D181EA030101F000415C
:1045C0004FF0000070BD50EA410606BF1046194684
:1045D00052EA430619D094EA0C0F02D150EA013690
:1045E00013D195EA0C0F05D152EA03361CBF1046D1
:1045F00019460AD181EA030101F0004141F0FE4170
:1046000041F470014FF0000070BD41F0FE4141F4F3
:10461000780170BD70B54FF0FF0C4CF4E06C1CEAF3
:1046200011541DBF1CEA135594EA0C0F95EA0C0FA8
:1046300000F0A7F8A4EB050481EA030E52EA033563
:104640004FEA013100F088804FEA03334FF0805584
:1046500045EA131343EA12634FEA022245EA1115B1
:1046600045EA10654FEA00260EF000419D4208BF62
:10467000964244F1FD0404F5407402D25B084FEA0F
:104680003202B61A65EB03055B084FEA32024FF4BB
:1046900080104FF4002CB6EB020E75EB030E22BF18
:1046A000B61A754640EA0C005B084FEA3202B6EBD8
:1046B000020E75EB030E22BFB61A754640EA5C0087
:1046C0005B084FEA3202B6EB020E75EB030E22BF17
:1046D000B61A754640EA9C005B084FEA3202B6EB18
:1046E000020E75EB030E22BFB61A754640EADC00D7
:1046F00055EA060E18D04FEA051545EA16754FEA39
:1047000006164FEAC30343EA52734FEAC2025FEA56
:104710001C1CC0D111F4801F0BD141EA00014FF0E5
:1047200000004FF0004CB6E711F4801F04BF0143B6
:104730000020B4F1FD0C88BFBCF5E06F3FF6AFAED2
:10474000B5EB030C04BFB6EB020C5FEA500C50F162
:10475000000041EB045170BD0EF0004E4EEA1131E5
:1047600014EB5C04C2BFD4EB0C0541EA045170BDEC
:1047700041F480114FF0000E013C90E645EA060E30
:104780008DE60CEA135594EA0C0F08BF95EA0C0F5E
:104790003FF43BAF94EA0C0F0AD150EA01347FF4A6
:1047A00034AF95EA0C0F7FF425AF104619462CE77D
:1047B00095EA0C0F06D152EA03353FF4FDAE1046E0
:1047C000194622E750EA410618BF52EA43067FF431
:1047D000C5AE50EA41047FF40DAF52EA43057FF4C1
:1047E000EBAE12E74FF0FF3C06E000BF4FF0010CCC
:1047F00002E000BF4FF0010C4DF804CD4FEA410C30
:104800007FEA6C5C4FEA430C18BF7FEA6C5C1BD0FC
:1048100001B050EA410C0CBF52EA430C91EA030F7D
:1048200002BF90EA020F0020704710F1000F91EADA
:10483000030F58BF994208BF90422CBFD8176FEAA8
:10484000E37040F0010070474FEA410C7FEA6C5C76
:1048500002D150EA013C07D14FEA430C7FEA6C5C7D
:10486000D6D152EA033CD3D05DF8040B704700BFA9
:104870008446104662468C461946634600E000BFF7
:1048800001B5FFF7B7FF002848BF10F1000F01BDC9
:104890004DF808EDFFF7F4FF0CBF012000205DF894
:1048A00008FB00BF4DF808EDFFF7EAFF34BF012019
:1048B00000205DF808FB00BF4DF808EDFFF7E0FFB2
:1048C00094BF012000205DF808FB00BF4DF808ED03
:1048D000FFF7CEFF94BF012000205DF808FB00BF6A
:1048E0004DF808EDFFF7C4FF34BF012000205DF84C
:1048F00008FB00BF4FEA410C7FEA6C5C02D150EA32
:10490000013C0AD14FEA430C7FEA6C5C02D152EAC7
:10491000033C02D14FF0000070474FF00100704798
:104920000B460146184600F039B800BF024B0A4654
:104930000146186800F002B8A88EFF1F10B502FBF0
:1049400001F100F06FF80446D8B150F8042C22F0C1
:104950000302043A242A18D8132A14D900231B2A44
:104960000360436016D9242A8360C36011BF00F13D
:1049700010020361436100F11802002313605360C9
:104980009360204610BD0246F7E7002100F07CFB53
:10499000204610BD00F10802EFE700BF13460A46AB
:1049A0000146022000F0F2BE014B1868704700BFBC
:1049B000A88EFF1F70B50F4E0F4D761BB61018BF97
:1049C000002405D0013455F8043B9847A642F9D19C
:1049D0000A4E0B4D761B04F0E5FBB61018BF002401
:1049E00006D0013455F8043B9847A642F9D170BD72
:1049F00070BD00BFB0910000B0910000BC910000FC
:104A0000B0910000024B0146186800F00BB800BFDF
:104A1000A88EFF1F024B0146186800F07BBF00BF45
:104A2000A88EFF1F2DE9F04F01F10B05162D83B065
:104A3000064640F29F8035F0070500F1BF80A9428D
:104A400000F2BC8000F06EFBB5F5FC7FC0F09C82EC
:104A50006B0A00F0BA80042B00F28381A80900F1F0
:104A6000390E4FEA4E033830C44F07EB8303A3F1EE
:104A700008015C68A14207D1ACE0002A80F2AC805A
:104A8000E468A14200F0A680636823F003035A1B88
:104A90000F2AF2DDB9493C6901F1080E744500F0B6
:104AA000B381636823F003035A1B0F2A00F3998133
:104AB000002AC1F814E0C1F810E080F29E80B3F53E
:104AC000007F80F06781DB0803F1010C01229B105D
:104AD00002FA03F34A6851F83C80C4F8088001EBFD
:104AE000CC091A43A9F10803E3604A6041F83C404D
:104AF000C8F80C40831001249C40944200F28A8044
:104B0000144206D120F003006400144200F10400B6
:104B1000FAD007EBC009CC468046DCF80C108C4577
:104B200007D173E1002A80F28181C9688C4500F0C9
:104B30006D814B6823F003035A1B0F2AF2DD0C46EC
:104B4000D1F80CC054F8088F4B1945F001054D60A1
:104B500042F00101C8F80CC03046CCF808807B61F7
:104B60003B61C3F80CE0C3F808E059609A5000F0CC
:104B7000DBFA1FE0102921D800F0D4FA1025062313
:104B800002207E4F07EB8303A3F108025C68944286
:104B900000F045816368E168A56823F003032344BE
:104BA00030465A68E96042F001028D605A6000F0B8
:104BB000BBFA0834204603B0BDE8F08F00240C2374
:104BC0002046336003B0BDE8F08F80234FF0400EE5
:104BD0003F2049E770465DE72344E1685A68A568CD
:104BE00042F00102E96030468D605A6000F09CFAA4
:104BF0000834204603B0BDE8F08F234430465A689D
:104C000042F001025A6000F08FFA0834204603B0E7
:104C1000BDE8F08FBC68636823F00308A84504D39F
:104C2000C5EB08030F2B00F38C80554BDFF8609128
:104C30001A68D9F8003001332A4404EB080A00F05E
:104C4000608102F580520F3222F47F6222F00F025F
:104C500011463046019200F061FCB0F1FF3F8346FF
:104C6000019A00F05881824500F2FC80454B19689A
:104C7000DA451144196000F05381D9F80000DFF8DB
:104C800010E101301BBFCAEB0B0A5144CEF800B053
:104C900019601BF0070100F01781C1F10800C1F590
:104CA0008051834408315A44C2F30B02C2EB01091C
:104CB00049463046019300F031FC431C019B00F053
:104CC0003F81CBEB00024A4442F001021968C7F869
:104CD00008B04944BC42CBF804201960DFF8A49026
:104CE00016D0B8F10F0F40F2FD806268A8F10C03F6
:104CF00023F00703E01802F001024FF0050E1A43FB
:104D00000F2B6260C0F804E0C0F808E000F21C81DC
:104D10001D4BBC681A68914288BF19601B4B1A680A
:104D20009142626888BF196022F003029542A2EBAB
:104D3000050301D80F2B04DC304600F0F5F9002400
:104D400038E7621943F0010345F00105656030461C
:104D5000BA60536000F0E8F90834204603B0BDE8BB
:104D6000F08F142B71D9542B00F2A480280B00F182
:104D70006F0E4FEA4E036E3076E600BF1890FF1FAD
:104D80002CA1FF1F30A1FF1F28A1FF1F24A1FF1F7F
:104D90002494FF1F5A0A042A5ED9142A00F2B38011
:104DA00002F15C0149005B3207EB810C57F82110DE
:104DB000DFF8DC81ACF1080C8C4500F088804A6893
:104DC00022F00302934202D289688C45F7D1D1F8D0
:104DD0000CC07A68C4F80CC0A160CCF80840CC6064
:104DE00088E6631942F0010745F001056560304629
:104DF0004B610B61C3F80CE0C3F808E05F609A50A8
:104E0000083400F091F9D5E64A6873E608F1010824
:104E100018F0030F0CF1080C7FF47FAE30E0DC6873
:104E2000A34208BF02303FF435AEB3E60B440C4654
:104E30005A68C96854F8085F42F001025A60304667
:104E4000E9608D6000F070F9B4E603F15C0E03F1E7
:104E50005B004FEA4E0307E69A0902F13901490067
:104E60003832A1E7BC424A4B3FF400AF9C6862680D
:104E700022F003025AE759F80839994540F0828038
:104E800010F0030F00F1FF30F5D17B6823EA040333
:104E90007B6064009C423FF6BDAE002C3FF4BAAE8E
:104EA0001C4240467FF435AE64001C4200F1040011
:104EB000FAD02EE6B3F5AA7F18D8E80B00F1780EE9
:104EC0004FEA4E037730CFE54FF48051EBE60121F6
:104ED000D8F80430921001FA02F21A43C8F80420FC
:104EE000614677E70123CBF8043025E740F25452BE
:104EF000934220D8A80C00F17D0E4FEA4E037C307F
:104F0000B2E51032A4E6542A26D81A0B02F16F013A
:104F100049006E3248E7BC68626822F0030205E788
:104F2000CAF30B0000287FF4A8AE4244BB6842F0ED
:104F300001025A60ECE6FE234FF07F0E7E2093E5DF
:104F400001224FF00009C1E604F10801304600F0EB
:104F5000E1FCD9F80010DBE6B2F5AA7F05D8DA0B40
:104F600002F17801490077321EE740F254518A423B
:104F700005D89A0C02F17D0149007C3214E7FE212C
:104F80007E2211E77B6884E7E808431C5B00F8E5B4
:104F90001890FF1F82B049B15AB16BB113780B6002
:104FA0001278101C18BF012002B0704701A9002A16
:104FB000F3D1104602B070476FF00100F4E700BF74
:104FC0008842F0B50DD98B1898420AD28118002A70
:104FD00051D09A1A13F8014D01F8014D9342F9D1BD
:104FE000F0BD0F2A48D941EA00039B0746D100F1E2
:104FF000100401F11003154653F8106C44F8106CBE
:1050000053F80C6C44F80C6C53F8086C44F8086CBA
:10501000103D53F8046C44F8046C0F2D03F1100399
:1050200004F11004E8D8A2F1100323F00F0302F0FA
:105030000F0E1033BEF1030F1944034421D91E1F74
:105040000D467446043C55F8047B46F8047F032C57
:10505000F8D8AEF1040424F00304043423442144BA
:1050600002F0030262B1013B0A4411F8014B03F85C
:10507000014F8A42F9D1F0BD0346F3E70346F2E758
:10508000F0BD7246EEE700BF70B4840746D0541EF0
:10509000002A41D0CDB2034602E0621EE4B31446BA
:1050A00003F8015B9A07F8D1032C2ED9CDB245EA5B
:1050B00005250F2C45EA054519D903F110022646AE
:1050C000103E0F2E42F8105C42F80C5C42F8085C6F
:1050D00042F8045C02F11002F2D8A4F1100222F0AE
:1050E0000F0204F00F041032032C13440DD91E4696
:1050F0002246043A032A46F8045BFAD8221F22F01B
:1051000003020432134404F003042CB1C9B21C445A
:1051100003F8011BA342FBD170BC70471446034641
:10512000C2E700BF704700BF704700BF024B0A468E
:105130000146186800F002B8A88EFF1F2DE9F04F55
:10514000174683B0002900F0C1800E46814607F162
:105150000B05FFF7E7FF56F804EC162D2EF00304BD
:10516000A6F1080840D810221546AF4241D8944213
:1051700075DAC94B996808EB04008842416800F071
:10518000D98021F0010303445B68DB077DD51EF065
:10519000010F35D039464846FFF744FC0746E0B1D9
:1051A00056F8043C23F001034344A0F108029A425C
:1051B00000F04481221F242A00F23181132A00F2D8
:1051C000048103463246116819605168596092683B
:1051D0009A603146484600F09DFB4846FFF7A4FF21
:1051E000384603B0BDE8F08F25F00705002D2A46AC
:1051F000BBDA0C230020C9F8003003B0BDE8F08F03
:1052000056F8083CC3EB080ADAF8043023F0030C24
:1052100004EB0C039342BDDB5746DAF80C1057F849
:10522000080F221F242AC160886000F21781132A08
:1052300040F212813168CAF808107168CAF80C107F
:105240001B2A00F22B8108360AF110023168116026
:1052500071685160B16891603E461C46D046631B40
:105260000F2B1DD8D8F8043003F001032343444426
:10527000C8F80430636843F0010363604846FFF7F1
:1052800053FF304603B0BDE8F08F21F00301214405
:10529000914221DBC36882680C46D3609A60DEE7E6
:1052A000D8F8042008EB050102F00102154343F091
:1052B00001020B44C8F804504A605A6842F00102E7
:1052C00008315A60484600F025FBD7E7114603B085
:1052D000BDE8F04FFFF7A6BB1EF0010F7FF45AAFF9
:1052E00056F8083CC3EB080ADAF8043023F0030C44
:1052F00001EB0C0E96458BDBC36882685746D36082
:105300009A6057F8081FDAF80C30CB60221F242A65
:10531000996000F29980132A62D93368CAF808307C
:105320007368CAF80C301B2A00F2A08008360AF114
:10533000100356E021F0030BA34405F11000834550
:1053400059DA1EF0010F7FF425AF56F8081CC1EBA7
:10535000080ADAF8041021F0030CE34458453FF73B
:1053600057AF5746DAF80C1057F8080F221F242AB7
:10537000C160886000F2B480132A40F2A5803168D1
:10538000CAF808107168CAF80C101B2A00F2AF8026
:1053900008360AF110023168116071685160B16815
:1053A00091600AEB0501C5EB0B0242F00102996026
:1053B0004A60DAF8043003F001031D434846CAF896
:1053C0000450FFF7B1FE38465CE73368036073684A
:1053D00043601B2A27D800F1080306F10802F2E611
:1053E0003B4632681A6072685A60B2689A603E46FC
:1053F0007446D04633E708EB0501C5EB0B0B4BF0C9
:10540000010299604A6056F8043C03F001031D4311
:10541000484646F8045CFFF787FE304632E73146DF
:10542000FFF7CEFDD5E6B3688360F368C360242A36
:1054300028D000F1100306F11002C4E650F8043C35
:1054400023F003031C440AE7314638467446D0462D
:10545000FFF7B6FD3E4602E73A46F7E631463846E4
:105460001C46D046FFF7ACFD3E46F8E6B368CAF8E6
:105470001030F368CAF81430242A1BD010360AF111
:105480001803AEE7336903617369436106F11802DB
:1054900000F1180397E600BF1890FF1FB168CAF823
:1054A0001010F168CAF81410242A0FD010360AF12F
:1054B0001802CBE63369CAF818307369CAF81C3091
:1054C00018360AF120038CE73A4664E73269CAF8D5
:1054D00018207269CAF81C2018360AF12002B5E6B5
:1054E000314638460193FFF76BFD019B59E7B168E0
:1054F000CAF81010F168CAF81410242A03D0103624
:105500000AF1180247E73269CAF818207269CAF826
:105510001C2018360AF120023DE700BF38B5074CC1
:105520000023054608462360FEF76EFA431C00D0B0
:1055300038BD2368002BFBD02B6038BD6CA1FF1F4A
:1055400080EA0102844612F0030F4FD111F0030FDD
:1055500032D14DF8044D11F0040F51F8043B0BD03B
:10556000A3F101329A4312F0803F04BF4CF8043B90
:1055700051F8043B16D100BF51F8044BA3F101329E
:105580009A4312F0803FA4F101320BD14CF8043B56
:10559000A24312F0803F04BF51F8043B4CF8044B87
:1055A000EAD023460CF8013B13F0FF0F4FEA3323F8
:1055B000F8D15DF8044B704711F0010F06D011F8D7
:1055C000012B0CF8012B002A08BF704711F0020FC5
:1055D000BFD031F8022B12F0FF0F16BF2CF8022BB0
:1055E0008CF8002012F47F4FB3D1704711F8012BD3
:1055F0000CF8012B002AF9D1704700BFFFFFFFFF15
:1056000090F800F06DE9024520F007016FF0000C02
:1056100010F0070491F820F040F049804FF00004AA
:105620006FF00700D1E9002391F840F000F1080085
:1056300082FA4CF2A4FA8CF283FA4CF3A2FA8CF3BD
:105640004BBBD1E9022382FA4CF200F10800A4FA24
:105650008CF283FA4CF3A2FA8CF3E3B9D1E9042378
:1056600082FA4CF200F10800A4FA8CF283FA4CF3AF
:10567000A2FA8CF37BB9D1E9062301F1200182FA69
:105680004CF200F10800A4FA8CF283FA4CF3A2FA6F
:105690008CF3002BC6D0002A04BF04301A4612BA7D
:1056A000B2FA82F2FDE8024500EBD2007047D1E980
:1056B000002304F00305C4F100004FEAC50514F00F
:1056C000040F91F840F00CFA05F562EA05021CBFE0
:1056D00063EA050362464FF00004A9E770B5002AAB
:1056E0009AB005462FDB14461A464FF40273009118
:1056F0000491ADF80C3011D0013C4FF6FF761E9BA3
:10570000029469460594ADF80E6000F057FD421C06
:1057100012DB009B00221A701AB070BD1E9B02940F
:105720004FF6FF7669460594ADF80E6000F046FD31
:10573000431C04DB1AB070BD8B232B60E9E78B237D
:105740002B601AB070BD8B2303604FF0FF30F1E780
:1057500010B582B0054C0093246813460A460146F2
:105760002046FFF7BBFF02B010BD00BFA88EFF1F91
:1057700021B1FF2A04D80A700120704708467047FB
:105780008A2303604FF0FF30704700BF2DE9F047D8
:10579000254C2568D5F848410646884692469946E4
:1057A000C4B360681F2817DC431C76B104EB800586
:1057B0000122C5F888A0D4F8881182401143022E36
:1057C000C4F88811C5F808911ED00230636044F80F
:1057D00020800020BDE8F087144B03B34FF4C8705D
:1057E000FFF710F90446D0B1D5F84831002780E81A
:1057F0008800C5F8484138460123C4F88871C4F8C8
:105800008C71002EE1D0D1E7D4F88C110A43C4F892
:105810008C21DAE705F5A674C5F84841C1E74FF0D9
:10582000FF30BDE8F08700BF188F0000054A000078
:10583000024B13B1024800F005B8704700000000A9
:1058400051580000002301461A461846FFF79EBF34
:1058500038B5074D074C2C1BA41005D0013C55F85A
:10586000043D9847002CF9D1BDE8384003F0A6BCB0
:105870000000000000000000F8B5234F0C4606466B
:10588000FFF750FCBB685D6825F00305291B01F696
:10589000EF7121F47F6121F00F01A1F58054B4F57F
:1058A000805F07DB00213046FFF738FEBB682B44E2
:1058B000984204D03046FFF737FC0020F8BD614223
:1058C0003046FFF72BFE01300DD0104BBA68196837
:1058D0002D1B45F001053046091B55601960FFF787
:1058E00023FC0120F8BD00213046FFF717FEBA68FF
:1058F000831A0F2BDEDD064C0449246843F00103B4
:10590000001B53600860D5E71890FF1F30A1FF1FF0
:105910002494FF1F002945D02DE9F0410D46804613
:10592000FFF700FC55F8047C6A4927F00103A5F154
:105930000804E2188E685068B24220F0030062D07A
:10594000FE0750600BD455F8087CE41B01F1080EEB
:10595000A56875453B446FD0E768EF60BD601518DA
:105960006D68ED0742D543F001026260E350B3F584
:10597000007F18D2DB085A1C4D6851F83270A760BE
:1059800001209B1000FA03F301EBC2001D4308380D
:10599000E0604D6041F83240FC604046BDE8F041B7
:1059A000FFF7C2BB70475A0A042A53D89A0902F17A
:1059B00039077F0002F1380501EB870051F82720F5
:1059C0004449083890424DD0516821F003018B4280
:1059D00002D292689042F7D1D068E060A260846001
:1059E000D4604046BDE8F041FFF79EBB95683A4F52
:1059F000BD4203443FD0D068E86043F001028560B7
:105A00006260E350B3E7FF07034407D455F8082C5E
:105A1000A41A1344A068E268C26090602F4A12681A
:105A200043F00100934260608C60B6D32C4B40463B
:105A30001968FFF721FFB0E711184968C90744D476
:105A40009168D268CA60034443F0010091606060CD
:105A5000E350A2E7142A17D802F15C077F0002F195
:105A60005B05A9E7AA104B68012505FA02F213436A
:105A70004B600246B1E743F001024C610C61E56006
:105A8000A5606260E35088E7542A06D81A0B02F139
:105A90006F077F0002F16E058EE7B2F5AA7F06D888
:105AA000DA0B02F178077F0002F1770584E740F214
:105AB0005450824206D89A0C02F17D077F0002F111
:105AC0007C0579E7FE277E2576E743F001026260D8
:105AD000E35062E71890FF1F2090FF1F2094FF1FE4
