:1000000000800020BD01000019230000D122000063
:10001000D1220000D1220000D1220000D122000014
:10002000D1220000D1220000D122000019230000BB
:1000300019230000D12200009138000095380000FB
:1000400019230000192300001923000019230000C0
:1000500019230000192300001923000019230000B0
:1000600019230000192300001923000019230000A0
:100070001923000019230000192300001923000090
:100080001923000019230000192300001923000080
:100090001923000019230000192300001923000070
:1000A0008521000091210000192300001923000080
:1000B0001923000019230000192300001923000050
:1000C0001923000019230000192300001923000040
:1000D0001923000019230000192300001923000030
:1000E0001923000019230000192300001923000020
:1000F0001923000019230000192300001923000010
:1001000019230000192300001923000019230000FF
:1001100019230000192300001923000019230000EF
:1001200019230000192300001923000019230000DF
:1001300019230000192300001923000019230000CF
:1001400019230000192300001923000019230000BF
:1001500019230000192300001923000019230000AF
:100160001923000069290000192300001923000049
:10017000192300001923000019230000192300008F
:10018000192300001923000019230000192300007F
:10019000192300001923000019230000192300006F
:1001A000192300001923000019230000192300005F
:1001B000192300001923000019230000564B4CF2AC
:1001C000205210B51A804DF628121A8000BF00BFC9
:1001D00002F0A6F8514B4FF010621A60504A9A6034
:1001E000504ADA60504A136813F4807304D14F49BF
:1001F0000B604FF4A85313604D4B1A78110703D5C9
:100200001A7842F008021A704A4B4B492A221A7097
:100210004A4A4B4B8B4204D252F8040F43F8040B6A
:10022000F8E7484B484900228B4202D243F8042B9E
:10023000FAE74649464A002352F8230041F82300D2
:1002400001336F2BF8D1434B434A802103F8011B44
:100250009342FBD1414B3D4A1A60414B8A221A70AE
:10026000A3F5805324225A70A0221A709A7992071B
:10027000FCD59A79D406FCD43A4A937903F00C035E
:10028000082B384BF9D103221A7146225A719A79F8
:100290009006FCD5334A9179324B4906FBD5324A58
:1002A0004FF0827111600921516020221A709A79F1
:1002B00002F00C020C2AFAD12C4B2D4A1A602D4B5D
:1002C0002D4A1A6000225A60072243F8042C2B4A58
:1002D000C3F80C2D62B602F0FDF9144B1B68DA0767
:1002E00005D5274802F05AF9264B274A1A60274BB2
:1002F0001B785B0609D5234C234B22689A4204D114
:100300001F4802F04BF90023236004F079F902F052
:100310000DF803F057FBFEE70E2005403080044047
:10032000823F04000100002B10D0034014D0034092
:1003300002D0074000E007402894FF1F848E000091
:100340002087FF1F2894FF1FCCA3FF1F0082FF1FE1
:100350000000000000E400E05FE400E008ED00E0E1
:1003600000500640004006404480044004800440A1
:10037000C010050014E000E0BFD401000000202000
:10038000A61720601CE00340A5C3945A00F0074064
:10039000FFFFFFFFFFFFFFFFFFFFFFFFFFFFFFFF6D
:1003A000FFFFFFFFFFFFFFFFFFFFFFFFFFFFFFFF5D
:1003B000FFFFFFFFFFFFFFFFFFFFFFFFFFFFFFFF4D
:1003C000FFFFFFFFFFFFFFFFFFFFFFFFFFFFFFFF3D
:1003D000FFFFFFFFFFFFFFFFFFFFFFFFFFFFFFFF2D
:1003E000FFFFFFFFFFFFFFFFFFFFFFFFFFFFFFFF1D
:1003F000FFFFFFFFFFFFFFFFFFFFFFFFFFFFFFFF0D
:10040000FFFFFFFFFFFFFFFFFFFFFFFFDEF9FFFF23
:1004100010B5054C237833B9044B13B10448AFF33E
:1004200000800123237010BD2894FF1F00000000EE
:10043000808E0000084B10B51BB108490848AFF387
:1004400000800848036803B910BD074B002BFBD0A0
:10045000BDE81040184700BF000000002C94FF1FAB
:10046000808E00002894FF1F0000000038B5002592
:100470000446C0F89C50C0F8A050C0F80C51C0F819
:100480001051294600F5077003F072FA84F82C52D7
:1004900084F82D52204638BDF0B40124002580F8A0
:1004A0001641134680F8195100F21B1400F21B2765
:1004B00004F8015FA7424FF00006F9D1012480F84B
:1004C000171180F8183180F82C6280F8144180F8F8
:1004D000154180F82D420A4620460249F0BC00F042
:1004E0004DBC00BFD8880000C9B200F21B1300F257
:1004F0001B2203F8011F9342FBD170472DE9F843FB
:10050000044690F8185190F8176103F035F8C0B21E
:10051000932800F2C780DFE810F0D10058024802AB
:100520003A0232029202CB00C500CB00C500C500E2
:10053000C500C500C500C500C50076015D019D026E
:10054000040279038F010D010001E7004903A802AD
:100550001203CC01C500C500C50056030F02C5003B
:10056000C500C500C500C500C500C500C500C50063
:10057000C500C500C500C500C500C500C500C50053
:10058000C500C500C500C500C500C500C500C50043
:10059000C500C500C500C500C500C500C500C50033
:1005A000C500C500C500C500C500C500C500C50023
:1005B000C500C500C500C500C500F002C700C700E2
:1005C000C500C500C500C500C500C500C500C50003
:1005D000C500C500C500C500C500C500C500C500F3
:1005E000C500C500C500C500C500C500C500C500E3
:1005F000C500C500C500C500C500C500C500C500D3
:10060000C500C500C500C500C500C500C500C500C2
:10061000C500C500C500C500C500C500C500C500B2
:10062000C500C500C500C500C500C500C500C500A2
:10063000C500C500C500C500C5004801D003720251
:10064000940002F099FF074602F096FFC5B202F04F
:1006500093FFC6B202F090FFB542C0B2C0F05A8319
:100660003F2D0ED8B90101F47F516A18FF2AD8BF77
:10067000121905F10103DDB2D8BF82F81C01402D2B
:10068000F3D1002E00F05783BB0103F47F532B44BA
:100690001C4400220132FF2BD1B2D8BF84F81C01C8
:1006A000B142F7D3BDE8F883BDE8F84302F064BF78
:1006B00002F062FFBDE8F84302F05EBF002003F0E5
:1006C00045F8B5FBF6F5012003F040F8284603F0A5
:1006D0003DF8002003F03AF8022003F037F82846EE
:1006E000BDE8F84303F032B802F046FF054602F0D9
:1006F00043FF064602F040FF94F81821EBB29A42FD
:10070000D0D994F81711F6B2B142CBD902FB064604
:10071000334483F81C01BDE8F88302F02DFF04F296
:100720001B13C0B204F21B2403F8010F9C42FBD13F
:10073000BDE8F88302F020FFC6B202F01DFFC0B290
:10074000102803D91030C0B21028FBD800F0F805EB
:1007500002F012FF0022C7B204EB060E4FF00F0C9E
:1007600011E094F818319E4207D294F81711A9426B
:1007700005FB03E301D983F81CC10132681C082A78
:10078000C5B200F0BB8247FA02F313F00103E8D1CF
:1007900094F818118E42F0D294F81701A84284BF41
:1007A00005FB01E181F81C31E7E702F0E5FE0546B3
:1007B00002F0E2FE064602F0DFFEAB0103F47F53D7
:1007C00053FA86F3FF2B3FF76DAF234483F81C01E8
:1007D000BDE8F88302F0D0FE054602F0CDFE94F8A5
:1007E0001821EBB29A427FF65DAF94F81711C0B2B0
:1007F00081427FF657AF02FB004003440F2283F88B
:100800001C21BDE8F88302F0B7FE054602F0B4FEF5
:1008100094F81821EBB29A427FF644AF94F817117E
:10082000C0B281427FF63EAF02FB0040034400228B
:1008300083F81C21BDE8F88302F09EFEC0B21028A8
:1008400003D91030C0B21028FBD800F0F80502F030
:1008500093FEC6B202F090FE2B46C0B200214FF0CC
:100860000F0E12E094F81821934208D294F8175111
:10087000E718B54202FB067201D982F81CE101318A
:1008800001330829DBB200F03F8240FA01F212F096
:100890000102E7D194F81851AB42F0D294F81771E5
:1008A000B74204EB030784BF05FB067585F81C21DE
:1008B000E5E702F061FEC0B2102803D91030C0B2E3
:1008C0001028FBD800F0F80702F056FEC0B210283E
:1008D00003D91030C0B21028FBD800F0F80500266C
:1008E0000F2304EB070813E094F8182113F00F010D
:1008F000974207D294F81701A84284BF05FB0282F1
:1009000082F81C110136681C082EC5B200F0F8816F
:10091000F207E9D402F030FEC3B294F818211909A5
:10092000E6E704F21B130F2204F21B2403F8012F45
:100930009C42FBD1BDE8F88302F01EFE054602F0A2
:100940001BFED4F89C1031293FF7ACAED4F8A03090
:10095000BE4ACE1882FB0623F217C2EB23123223C3
:1009600003FB1263DBB203EB430323440122013197
:10097000DD7018715A71C4F89C10BDE8F88302F05C
:10098000FBFD02F0F9FDBDE8F84302F0F5BD0220E1
:1009900002F0DCFE012002F0D9FE002002F0D6FEBB
:1009A0000020BDE8F84302F0D1BE04F5077400252D
:1009B0002946204602F0F8FF064602F0DDFD01352B
:1009C000202D3070F4D1BDE8F883012002F0BEFE86
:1009D000002504F5077608E002F0E6FF007802F053
:1009E000B5FE0135202D00F09381D4F82432AB42BE
:1009F00029463046F0D8002002F0A8FEF1E702F0C8
:100A0000BBFD800100F47F5606F58E731C44002563
:100A10000F200CE0721910F00F03FF2A05F10105F9
:100A200098BF2370402D04F1010400F06F81EB07A3
:100A3000F0D402F0A1FDC0B272190309EDE7032062
:100A400002F084FE284602F081FE3046BDE8F843FD
:100A500002F07CBE04F21B13002204F21B2403F8F4
:100A6000012FA342FBD1BDE8F88302F085FDC0B29F
:100A7000102803D91030C0B21028FBD800F0F808B5
:100A800002F07AFDC0B2102803D91030C0B210288D
:100A9000FBD800F0F80700250F2005F108095FFAE0
:100AA00089F9464615E094F8183110F00F01B34269
:100AB00008D994F81721BA4204D9A21907FB0323D5
:100AC00083F81C110135EDB2731C4D45DEB200F008
:100AD0000E81EB07E7D402F04FFD94F81831C0B255
:100AE0000209B342EED994F81711B942EAD9A11913
:100AF00007FB031383F81C21E4E702F03DFD0546E4
:100B000002F03AFDD4F80C1131293FF7CBADD4F8FF
:100B100010314E4ACE1882FB0623F217C2EB231285
:100B2000322303FB1263DBB204EB4303013183F88E
:100B3000A65083F8A700C4F80C11BDE8F88302F0B2
:100B40001BFDC0B2102803D91030C0B21028FBD84A
:100B500000F0F80502F010FDC0B2102803D91030E3
:100B6000C0B21028FBD800F0F80600270F2314E0CD
:100B700094F8182113F00F01AA4208D994F817012C
:100B8000B04204D9601906FB020282F81C11013739
:100B90000135082FEDB200F0B580F907E8D402F076
:100BA000EBFCC3B294F818211909E5E702F0E4FC64
:100BB00004F21B13C0B204F21B2403F8010F9C4281
:100BC000FBD1BDE8F88302F0D7FC054602F0D4FC67
:100BD000D4F89C1031293FF765ADD4F8A0301B4AFA
:100BE000CE1882FB0623F217C2EB2312322303FB3B
:100BF0001263DBB203EB4303234400220131DD70B7
:100C000018715A71C4F89C10BDE8F88302F0B4FC66
:100C1000C0B2102803D91030C0B21028FBD800F0A1
:100C2000F80502F0A9FCC0B2102803D91030C0B2F8
:100C30001028FBD800F0F80808F10806F6B20F27D4
:100C400002F09AFC2A46C0B2002114E01F85EB5145
:100C500094F818319A4209D294F817E104EB020C87
:100C6000C64508FB03C301D983F81C710131013269
:100C70000829D2B219D040FA01F313F00103E7D1E9
:100C800094F818E17245F1D294F817C1C44504EB09
:100C9000020C88BF08FB0ECE01F1010188BF8EF85F
:100CA0001C3101320829D2B2E5D108F101085FFAFE
:100CB00088F84645C4D1BDE8F88302F05DFC0546DE
:100CC00002F05AFCAA0102F47F521C4D02F58E7309
:100CD00002F5AE72C0B22344A1182D1BEA18FF2AF8
:100CE000D8BF187001339942F8D1BDE8F8830137B5
:100CF000402DFFB27FF4D1AEBDE8F883BDE8F883A4
:100D0000BDE8F883BDE8F883BDE8F883BDE8F88363
:100D1000BDE8F883BB0103F47F53EA18FF2AD8BF6C
:100D2000121905F10101CDB2D8BF82F81C01AE4203
:100D3000F3D8BDE8F883BDE8F88300BFE4FEFFFF09
:100D400010B5044602F054FC00B910BD2046BDE8C1
:100D50001040FFF7D3BB00BF38B5012B0D460CBFC9
:100D600021202020144602F0F1FC284602F0EEFC7F
:100D70002046BDE8384002F0E9BC00BF00281DDD78
:100D80000EB410B5B5B038AC02A8C8220021019449
:100D900003F0A0FF2346379AC82102A804F018FBED
:100DA00002A804F06DFA014602A802F04BFC0448C8
:100DB00002F08EFD35B0BDE8104003B0704700BFB3
:100DC000F489FF1F00207047704700BF704700BFC5
:100DD000C0F38D0200F00300032802F00F0108B5F4
:100DE000C2F3071209D0022801D0002008BD002359
:100DF0000448FFF7B1FF002008BD01230148FFF7B9
:100E0000ABFFF2E75C94FF1F10B5044600F50770D6
:100E100002F06EFD204610BD70B5064C064EA4F5DE
:100E2000F86544F8106C20467C3C00F047FDAC426D
:100E3000F7D170BDE09DFF1F108900002DE9F04142
:100E40000024DFF85880124E124F224656F8043F15
:100E500018F8015F1048DBB29D420CD07B5DC3EBFC
:100E600003231B121A0202EB03421A44A1B200F040
:100E700023FA356001220134B4F5807FE6D10AB946
:100E8000BDE8F0810448BDE8F04100F023BA00BF9E
:100E90004C9EFF1F308900005494FF1F7795FF1F61
:100EA000F0B5434C434985B0012504F5077084F83B
:100EB000155102F071FD102211462046FFF7ECFAA1
:100EC0003D4B3E491B6803933D4B039A0D701A60DE
:100ED00008263748FFF734FF642001F0ADFB013EE0
:100EE000F7D1384800F078F900284AD001270024CB
:100EF000E5B22946032332463248009700F0A8F9AC
:100F00002946022332462F48009700F0A1F9013408
:100F100029462D4B2B48324600F084F9102CE7D19E
:100F20000136F6B2102EE2D1284D05F5F87705F519
:100F3000F8662C462046FF2104F5F87400F0B2FD57
:100F4000A642F7D17C35BD42F1D100211848FFF708
:100F5000CBFAFFF773FF6FF07F420021194800F0D2
:100F6000ABF9184800F0B6F9642001F065FB0022E7
:100F70001146144800F0A0F9124800F0ABF905B092
:100F8000F0BD1721124802F05DFB124802F0A0FCF0
:100F90001521114802F056FB0E4802F099FC13216E
:100FA0000E4802F04FFB0B4802F092FCFEE700BF38
:100FB0005C94FF1F4494FF1F58A2FF1F4C9EFF1F0D
:100FC00050A2FF1F5494FF1FD10D00009C96FF1FDD
:100FD00040890000F489FF1F5889000070890000D3
:100FE00030B50D4883B0FFF7ABFE0C4B1B788BB1CF
:100FF0000B4D0C4C2B680093009B22689B1A102B06
:1010000008D9094800F082F9FFF718FF2B6801930F
:10101000019B236003B030BD5C94FF1F4C9EFF1FFB
:1010200058A2FF1F50A2FF1F5494FF1FF0B53F4B63
:101030003F4C1B683F4D404F4049414E83B02046D6
:101040000193404B019A1A6002F092FC2A463E49F5
:10105000204602F023FE3D4C3846FFF707FA2A46A9
:1010600038463B4902F01AFE2046332100F076F85C
:1010700004F17C00312100F071F804F1F8002F2117
:1010800000F06CF804F5BA702E2100F067F804F552
:10109000F870352100F062F804F51B70392100F07A
:1010A0005DF804F53A703F2100F058F804F55970E6
:1010B000372100F053F804F57870432100F04EF822
:1010C00004F25C40412100F049F804F59B603621B0
:1010D00000F044F804F254503E2100F03FF804F5CB
:1010E000BA60452100F03AF804F24C60492100F062
:1010F00035F804F5D9604D2100F030F804F2447061
:10110000472100F02BF82A461249002002F0C6FDC4
:1011100004231A462146304600F058F82A46304645
:101120000D4902F0BBFD03B0F0BD00BF58A2FF1F88
:101130004494FF1FFC87FF1F5C94FF1F84890000FD
:101140005494FF1F50A2FF1FF13800008C96FF1F20
:10115000090E0000190E0000CD0D000070B5054607
:1011600082B00E46002100F067F928460B4B40F88C
:10117000103B0024522303221021009400F088FB2E
:10118000224605F1380305F1780143F8042F8B421C
:10119000FBD1284685F8386002B070BD1089000088
:1011A00070B50D4680F8381004461646103000F031
:1011B000EFFB294632462046002300F095FA05460B
:1011C00010B1204600F0C4FA284670BD10B4027079
:1011D0004370416010BC704702780AB370B5437821
:1011E0000546002600241BB915E06B78A34211DDEB
:1011F0006A6803FB0643C3EB431302EB8303184601
:1012000093F838104FF0FF32FFF7CAFF013400287F
:10121000EBD170BD2A780136B242E3DC012070BD0B
:101220000120704770B4447845689608880806FB2A
:10123000040002F00302C0EB401001F0030105EBD3
:10124000800001EB820100EB810170BCCB63704731
:1012500070B402F003054678406801F0030404EB23
:1012600085049208890802FB0615A10804F003040E
:10127000C5EB451504EBC1011A4600EB85009DF84E
:101280000C30C9B270BC00F00BBA00BF70B4457826
:10129000406896088C0806FB0544C4EB441402F031
:1012A000030500EB840001F0030101EB85011A4600
:1012B000103070BC00F09CBB10B44478A30091FBCC
:1012C000F3F403FB1411C9B21346E2B210BCFFF7EA
:1012D000DDBF00BF0378C3B170B505464078002676
:1012E000002470B100FB06406B68C0EB401003EBBC
:1012F0008000103000F066FB68780134A042F1DC19
:101300002B780136B342EBDC70BD70470378002BBD
:1013100000F081802DE9F04F85B000AF00224478C5
:10132000BA608346002C6DD0BB689B00FB604FF019
:10133000000805E09BF8014008F1010844455FDD25
:10134000BB6804FB0384DBF80430C4EB441403EBF8
:101350008404204600F040F944F62063013BFDD1AF
:101360000028E7D00230C6B2F31D23F00703C7F808
:1013700004D0ADEB030D6946324620466D4600F0C1
:101380001DF9AEB34FEA8803C7F800804FF0000A9A
:10139000B04626461C4615F80A008208D31002F013
:1013A000070202EB830363F387000F2B06EB830234
:1013B00005F80A0016D8F968D26B03F00300204440
:1013C00001EBA30372B19BF801E015F80AC04FEAE4
:1013D0008E0E1EFB03F318446CF3010960F38F09B2
:1013E000484690470AF1010AD045D4DCD7F800807E
:1013F0009BF80140D7F804D008F1010844459FDC70
:101400009BF80030BA6801329342BA608ADC143724
:10141000BD46BDE8F08F704790F8383090F839201D
:101420009A4205D95A1C034480F83820187E704728
:101430004FF0FF30704700BF0022044B0271036081
:1014400009B181607047024B836070479C8900003E
:101450003488FF1F2DE9F04F85B09DF83890BDF816
:101460003C40B9F1000F79D004EB84041F46DFF84B
:10147000F8800392E30002910546019300246A7903
:10148000AB680299520083F83B204FF0010283F8C9
:101490005E2083F85D20A8680368C4EB0906202E4F
:1014A0001B68A8BF20269847A868039903681B6893
:1014B000984795F90C00421CF6B202D106E095F966
:1014C0000C00C0B201F082F80028F8D00121A86811
:1014D00000F0C0FC019B13B1019B013BFDD195F9CC
:1014E0000C00431C02D106E095F90C00C0B201F0DB
:1014F0006DF80028F8D0012332466979A86800F019
:1015000033FD4EB34FF0000B12E090F8383090F8F6
:1015100039209A4203F1010E00EB030121D980F832
:1015200038E0087E07F80A000BF1010BB34510D034
:10153000A86803685B6904EB0B0A43455FFA8AFA03
:10154000E3D098470BF1010BC0B2B34507F80A008E
:10155000EED15C4404F0FF04A14590D805B0BDE88D
:10156000F08FFF20DEE700BF1914000010B502392C
:1015700084B003291FD8DFE801F018021C1A0822E2
:1015800002214FF4FA738DE80A0003AB0921FFF73B
:1015900061FF9DF80C409DF80D30012043EA0424C2
:1015A00001F04AF8204604B010BD0722E8E70A22FD
:1015B000E6E70922E4E70020F5E700BF10B582B0B6
:1015C0004FF47A74009210220B4601941146FFF7F3
:1015D00041FF02B010BD00BF00B5012285B04FF43D
:1015E000FA738DE80C0010210DF10F030422FFF7B0
:1015F00031FF9DF80F0005B05DF804FB2DE9F041C7
:1016000045799DF81860044601278068BD4080F840
:101610005E7080F83B5080F85D70A0680568D5F872
:1016200000801F461546C047A068036829461B680E
:101630009847A068056832466B683946984794F920
:101640000C00431C02D106E094F90C00C0B200F07B
:10165000BDFF0028F8D0A0680121BDE8F04100F0EE
:10166000F9BB00BF0439C9B2032916D870B50B4BBA
:101670005D56002D84B00EDB032314461612009332
:10168000022203AB08218DF80C508DF80E408DF826
:101690000D60FFF7B3FF04B070BD70479089000084
:1016A00030B5012585B04FF0000405FA02F263F36E
:1016B000000402238DF80C1062F3440400932A46C0
:1016C00003AB10218DF80D40FFF798FF05B030BD3A
:1016D00030B585B004AC012504F8013D00952346E2
:1016E000FFF78CFF05B030BD30B51D46531C85B0EB
:1016F00004464171027303D0D0B2002100F074FFA0
:10170000A06800F017FA95B901227D2320468DE8E4
:101710000C0000210DF10F03FFF79CFE9DF80F0058
:10172000A0F15500B0FA80F0400905B030BD04AB1F
:10173000FF2203F8022D0122009220467F22002181
:10174000FFF75CFF4FF4FA7000F076FFDCE700BFB4
:1017500000B585B004AB012203F8012D10210092E1
:101760000222FFF74BFF05B05DF804FB10B584B013
:1017700004AB012403F8011D052202210094FFF7A8
:101780003DFF204600F058FF204604B010BD00BFCA
:1017900010B50A788AB0A2B100230AAC1C44013308
:1017A00004F8202C11F8012FDBB2002AF5D11C46D9
:1017B0000093052202AB0221FFF720FF20460AB06A
:1017C00010BD14461346F3E70439C9B2032921D8E2
:1017D00070B5194C6556002D84B019DB102B1446DA
:1017E00019D0164B8DF80C50C2EB024283FB023429
:1017F0001444D217C2EBE4140323251200930122F0
:1018000003AB08218DF80E408DF80D50FFF7F6FE62
:1018100004B070BD7047032316120093012203AB7E
:1018200008218DF80C508DF80E408DF80D60FFF7F3
:10183000E5FE04B070BD00BF90890000818080800B
:1018400038B504464079A3680125A84083F85E5066
:1018500083F85D5083F83B00A06803681B68154659
:101860009847A068036829461B68984794F90C00BC
:10187000431C02D106E094F90C00C0B200F0A6FEB1
:101880000028F8D0A0680121BDE8384000F0E2BA95
:10189000F8B504460F46069916461D46FFF7CCFDDF
:1018A000002105482675617520602782A584E173B3
:1018B000A16121622046F8BDC489000010B504462C
:1018C0008069034B236008B102F0CAFE204610BDB8
:1018D000C489000070B50546806984B00E4608B121
:1018E00002F0BEFEEB7F2C7FA34214BF042403242E
:1018F00014FB06F4A4B26C822046012102F03CFEE7
:10190000A86180B12E82260AE4B202230093284601
:1019100003AB03220E218DF80C608DF80D40FFF70C
:101920006DFE04B070BD0446688228820646ECE76E
:10193000F8B5FF29C1F38113C57F067FC377C1F3D3
:10194000011E01F003028CBF002301230446C1F3F2
:1019500081078277837380F81CE0477702220E218B
:10196000AD1BFFF7B5FEA369B5FA85F56D096BB13F
:10197000E37F227F9B1AB3FA83F35B09AB4205D066
:10198000218A2046BDE8F840FFF7A4BFF8BD00BF9C
:1019900070B501230446FFF7A7FE054680B1A18C70
:1019A0002046FFF7C5FF218A2046FFF793FF94F9F1
:1019B00014600122F3B20E212046FFF789FE26753E
:1019C000284670BD83698BB110B5044600F012FE45
:1019D000236AC01AB0F5967FF8D305220E2120465F
:1019E000FFF72EFF00F006FE206210BD704700BF1B
:1019F000038A8B4246D9F0B5447D160C150A85B092
:101A0000F6B2EDB25FFA82FE5CB104FB06F604FBAF
:101A100005F504FB0EFEC6F30726C5F30725CEF336
:101A2000072EC77F037FBB4232D0836903EB81035C
:101A3000120E1F443CBBD2B23A70077FDE55427F84
:101A40009D54827F03F802E0C47F027F944224D039
:101A500004221546062611FB05F18DB204461946EF
:101A60002F120DF10A008DF809508DF8087000F062
:101A700095FB0096204602AB04220E21FFF7BEFD27
:101A800005B0F0BD704704FB02F2C2F30722D3E7B2
:101A9000826901EB41031344D0E703221546052672
:101AA000D9E700BF4175704790F8392090F83800A9
:101AB000101A704790F8383090F839209A4286BF53
:101AC0001B18187E4FF0FF30704700BF704700BFF3
:101AD00038B50546B0F85E0090B195F85D30144613
:101AE000C3F1210294420CD805F13B001844224670
:101AF00000F054FB95F85D30234485F85D302046B6
:101B000038BD012014462871EEE700BFB0F85E3002
:101B10006BB190F85D30202B07D8C218013380F8E4
:101B20005D30012082F83B107047012303710020D3
:101B3000704700BF0023426980F8383080F83930A0
:101B400080F85C3080F85D3080F85E3080F85F307F
:101B500006CA30B40D68046943662A4383660A6086
:101B6000A370426990F861301649146813441D7AD5
:101B70005B7B01EBC5051B026D6803F4E06343F07A
:101B800064032B6090F8623013449D7CDB7D01EB95
:101B9000C5011B02496803F4E06343F064030B6072
:101BA00021685368194205D003692C225A700369D1
:101BB00004229A71036920225A71036980229A7063
:101BC00030BC7047488A000010B50269D378DBB298
:101BD000D90604463DD510215806D17038D503F0FA
:101BE000040303F0FF02002B51D03D49626E002335
:101BF0000B7084F85D30002A5BD0904794F85D301C
:101C0000002B56D02369D0229A70236994F83B2088
:101C10001A712369012284F85C200222DA7010BD57
:101C2000304B84F860009C424AD02F4B9C4252D0EB
:101C300094F8391013791F29DBB207D828480078A7
:101C400020B16018013184F8391003760223D37073
:101C500010BD5906C3D4917801F0100101F0FF00C6
:101C60000029DDD013F001031ED194F85C1094F824
:101C70005D00884281BF4B1C091984F85C3091F8E3
:101C80003B3013712369D0229A702269DEE7236901
:101C900084F83920C0229A702369114A19790121E8
:101CA00011700222DA7010BDC0239370226913797B
:101CB000CCE70122002384F85D2084F83B30A1E7C3
:101CC000626994F86130094913440322187A00F0DC
:101CD000A5FB2269ACE7626994F861300449F3E737
:101CE00054A2FF1F3488FF1FA088FF1F511D000052
:101CF0005D1D00000369DB7803F0200373B190F8E9
:101D000060300133DBB2012B80F860301AD94269B0
:101D100090F861301344187A00F0FCBB70B542694A
:101D200003F0FF0590F8613013440446187A00F080
:101D3000F1FBA36E5BB184F8385094F83900BDE82C
:101D40007040184790F85F30002BE0D0704770BDAE
:101D50000148FFF7CFBF00BF3488FF1F0148FFF7DE
:101D6000C9BF00BFA088FF1F2DE9F047374FDFF83C
:101D7000E0903B68026982B006460093DDF800807F
:101D80000021C825D3789B065BD53B680193019B56
:101D9000C8EB03030F2BF5D949B1102BF2D000206B
:101DA0009070336980229A7002B0BDE8F087726942
:101DB00096F8613013440521187A00F015FC726919
:101DC00096F861301344012193F812A0504600F0B8
:101DD0000BFC09240021504600F0F2FB2B46013B8E
:101DE000FDD10121504600F0EBFB2B46013BFDD11C
:101DF000013CEFD1706996F8611001444FF4C8724C
:101E00000C7A4B7B09EBC4011B02496803F4E063C5
:101E100043F064030B6096F862300344997CDB7DE9
:101E200009EBC1011B02496803F4E06343F064035A
:101E30000B60013AFDD13269D3789B064FF0010166
:101E4000A3D4012002B0BDE8F08700BF58A2FF1F55
:101E5000488A0000F0B503691222DA7002699378AB
:101E600003F0200385B004460D46002B5ED0B4235A
:101E700093703C4922690B680093009E05E00B6853
:101E80000193019B9B1B042B42D8D37803F02003C2
:101E900003F0FF00002BF2D094F85D30002B31D01E
:101EA0004FF0000E4FF0020C04EB0E0393F83B30A2
:101EB00013710B680393039F206907E09B060DD500
:101EC0000B680293029BDB1B052B28D8C378DBB27F
:101ED00003F0020202F0FF06002AEFD080F803C0F0
:101EE0002669F378DBB2DF0632462DD49F062BD568
:101EF000DB0731D40EF1010E94F85D305FFA8EFEEF
:101F00007345D1D800201DBB002384F85E3004E067
:101F10009070236980229A70042005B0F0BD86700D
:101F20002369802204209A7005B0F0BD03F0FF06FB
:101F3000FFF71AFF10B9042005B0F0BD236984F83B
:101F40005F60B0229A7094E78023B3700420DAE7D0
:101F500026698023B370D7E7BEF1000F0CBF0220C3
:101F60000320F6E758A2FF1F2DE9F041066900257E
:101F7000122780F8385080F83950F770D0F810C028
:101F80009CF802E00EF0200E88B004468846154604
:101F90001E46BEF1000F49D0B4238CF80230784BB6
:101FA00021691A680092DDF800E006E01A680192E3
:101FB0000198CEEB0000042830D8C87800F020004B
:101FC00000F0FF070028F1D04FEA480242F001027A
:101FD000D2B20A711A680292DDF808E0206906E0C0
:101FE0001A6803920399CEEB010105292AD8C1781A
:101FF00001F0020101F0FF070029F1D04FF0020CBF
:1020000080F803C02269D17811F0110722D12DBBCD
:10201000002E0CBFA0238023937003E08F702369F0
:1020200080229A70384608B0BDE8F0810EF0FF07B4
:10203000FFF79AFE0028F5D0236984F85F70B0227C
:102040009A70ACE787702369802238469A7008B08E
:10205000BDE8F081802393700027E3E7012D75D060
:10206000A021917021690A79BE4667464FF0A80CFD
:102070001A680492049805E01A680592059A121AE3
:10208000052A4AD8CA7802F0020202F0FF08002AA4
:10209000F2D0CF702169CA78D2B212F0100F084680
:1020A0005AD1920658D5013DEDB2012D49D0BEF16D
:1020B0001F0F3BD90A79012DDAD11A680692069DC5
:1020C00005E01A680792079A521B052A46D8C2787B
:1020D00002F0020202F0FF01002AF2D00223C370D4
:1020E0002269D378DBB2D9063AD49B0634D5B02323
:1020F000BEF11F0F93703FD8226904EB0E031279D3
:102100001A760EF1010E5FFA8EFE16B12369802257
:102110009A7084F839E0774684E781F80280236971
:1021200080229A70774684F839E07BE704EB0E0250
:1021300091F8048082F818800EF1010E5FFA8EFE8D
:10214000B9E781F802C021690846B0E7A82191707B
:102150002069BE460279B0E7774663E78170DEE723
:102160001021C823D170013BFDD12269937803F07F
:10217000F7037746937055E723691B79C5E700BFDE
:1021800058A2FF1F0148FFF71FBD00BF3488FF1F83
:102190000148FFF719BD00BFA088FF1F844641EA30
:1021A000000313F003036DD1403A41D351F8043BCF
:1021B00040F8043B51F8043B40F8043B51F8043B21
:1021C00040F8043B51F8043B40F8043B51F8043B11
:1021D00040F8043B51F8043B40F8043B51F8043B01
:1021E00040F8043B51F8043B40F8043B51F8043BF1
:1021F00040F8043B51F8043B40F8043B51F8043BE1
:1022000040F8043B51F8043B40F8043B51F8043BD0
:1022100040F8043B51F8043B40F8043B51F8043BC0
:1022200040F8043B51F8043B40F8043B403ABDD22F
:10223000303211D351F8043B40F8043B51F8043BD1
:1022400040F8043B51F8043B40F8043B51F8043B90
:1022500040F8043B103AEDD20C3205D351F8043B60
:1022600040F8043B043AF9D2043208D0D2071CBF2C
:1022700011F8013B00F8013B01D30B880380604655
:10228000704700BF082A13D38B078DD010F00303CB
:102290008AD0C3F10403D21ADB071CBF11F8013B3B
:1022A00000F8013B80D331F8023B20F8023B7BE78A
:1022B000043AD9D3013A11F8013B00F8013BF9D2B5
:1022C0000B7803704B7843708B788370604670474F
:1022D00008B5104C08E0236859050DD423681A0589
:1022E0000FD42368DB0411D423685803F3D500F01E
:1022F0003BFB23685905F1D500F00EF823681A0559
:10230000EFD500F009F82368DB04EDD500F004F800
:10231000EAE700BF3480044008B5FFF7D9FF00BFEB
:10232000014B10221A80704700200540704700BF03
:10233000094908B50B6830B16A461844A2F58052C5
:10234000904202D20860184608BD02F053F90C23EF
:1023500003604FF0FF3008BD0C89FF1F704700BFBE
:1023600010B40F4B53F8302092F880422CB1012367
:1023700069B182F8803010BC704703EBC0035B6822
:102380001A6841B922F002021A6010BC704782F844
:10239000003110BC704742F003021A6010BC704755
:1023A000488A00001C4A02EBC00301295B6811D077
:1023B00004291BD052F83000002280F8802229B175
:1023C000022920D0032922D01A6070474FF480726E
:1023D0001A60704752F830004FF4A27280F88012F1
:1023E0001A601A6822F020021A60704752F8301002
:1023F0004FF4A272012081F880021A601A6842F03C
:1024000020021A60704740F203121A6070474FF4BE
:1024100081721A60704700BF488A0000212848D89E
:10242000F8B5042A44D8DFE802F0484B4E034500D3
:102430004FF410262B4B03EBC0030D465C6821685C
:1024400011F4E06148D0284B284A2949C3F89C215F
:1024500004F140422748C3F8A411A2F59221264F67
:10246000C3F8A0017C292548C3F8A871C3F8AC01C2
:102470002CD9A2F594237C2B2AD9A2F596237C2B68
:1024800028D9A2F598237C2B29D9A2F59A227C2A57
:1024900027D81B4872B6236823F4702343F0807258
:1024A000C4F384011643236040F82150266062B6CD
:1024B000F8BD70474FF43026BCE74FF40026B9E76B
:1024C0004FF44026B6E74FF42026B3E70D48E1E786
:1024D0000D48DFE70D48DDE7FFF764FFB3E70C4881
:1024E000D8E7F8BD488A00000082FF1FD187FF1F90
:1024F0007987FF1FA587FF1F4D87FF1F2187FF1FBC
:10250000E889FF1F1089FF1F4889FF1F9889FF1F57
:10251000C889FF1F1A4B03EBC00010B4426802F1D8
:102520004043A3F592217C2923D9A3F594217C294A
:102530000DD9A3F596217C291FD9A3F598217C29D3
:1025400019D9A3F59A237C2B11D80E4C00E00E4C20
:1025500072B613680D4823F08773C2F3840123F425
:10256000803343F08073136044F8210062B610BCDE
:102570007047074CECE7074CEAE7074CE8E700BF79
:10258000488A0000E889FF1F4889FF1F5D2300007B
:102590001089FF1FC889FF1F9889FF1F30B4054BA2
:1025A000054D064C002210211A602A602060196037
:1025B00030BC704714D0034004D0034000D0034027
:1025C000212801D8FFF7CCBE704700BF212806D8CC
:1025D000044B53F8303093F80002C0B2704700202B
:1025E000704700BF488A0000212801D8FFF7DABEF3
:1025F000704700BF72B60C490C4B0D4A1B68086847
:10260000126862B6520102D5322B88BF01300949E7
:10261000C3F5EA334FF47A72BF33A1FB031302FB15
:1026200000F000EB9310704758A2FF1F18E000E085
:1026300004ED00E0898888882DE9F843054672B6E4
:10264000204F214B214A1B683C68126862B6520138
:1026500002D5322B88BF013495B3C3F5EA331C4E43
:10266000DFF86490DFF86480BF334FF47A72A6FB22
:10267000031302FB04F404EB931472B6D9F80010B0
:102680003A68D8F800E062B6C1F5EA33BF33A6FB7A
:1026900003031EF0806FC4EB93134FF47A7002D0E3
:1026A000322988BF013200FB0233B3F57A7F04D3AD
:1026B000013D05D004F57A74DFE701F09FF9DCE70E
:1026C000BDE8F88358A2FF1F18E000E004ED00E029
:1026D00089888888F8B52D4B2D49DFF8D0E0DFF8E0
:1026E000D0C02C4E2C4D2D4C2D4A2E4F4FF40000B7
:1026F00018604FF0807018604FF0007018604FF055
:10270000806018604FF00060186000200860282387
:102710004EF6FF71CCF80010CEF800303360136035
:102720002B6023603B60B3629362092245F8242C3E
:10273000C4F8D80F05F57F65C7F8D41F07F5FF2744
:1027400007F5FA67C6F8F83F2B6006F5FF26C4F8D0
:10275000D42F05F5FD2504F5FF24386006F2F47644
:102760001148316005F5FF6504F5FD642B602360B9
:10277000026001F0B9F91920FFF75EFF00F05AFE80
:1027800040F21310BDE8F840FFF756BF08E100E043
:102790000480034014800340248003402C800340C5
:1027A0001C8003403480034000800B400C800340B9
:1027B00008800340431E032B14D872B60A4951F80F
:1027C000230068B170B4094C058834F813204668BA
:1027D00041F82360521B24F8132062B670BC704786
:1027E00062B6704700207047B4A2FF1FB4A3FF1F5A
:1027F000013803280BD872B6074B53F8203043B189
:1028000000205B680130002BFBD162B670470020CE
:1028100070471846F9E700BF08A3FF1F30B472B62F
:102820002B4A13781D0706D52A4B196A002936D082
:10283000996A002941D053781C0706D5254B196C9D
:1028400000293ED0996C002939D09378190705D515
:10285000204B196E002936D0996E89B1D3781B07A9
:1028600007D51C4BD3F880207AB3D3F888201121E8
:102870003AB162B6184B00221A7030BC00F056BE56
:102880000D21154C154D227843F8315003EBC1034F
:102890000830013A5860227062B630BC704704229A
:1028A0000D4C0F4D217843F8325003EBC203083032
:1028B0004A1E5860227062B6EFE70521E1E7092160
:1028C000DFE70822ECE70C22EAE71022E8E700BF86
:1028D000848B00000080FF1F31A3FF1FC800400051
:1028E00088004000431E032B1DD81B4A400140F0C6
:1028F000100030B4104472B6184CE25C032A1BD8A6
:10290000DFE802F00212151703220D88E25410F0DE
:10291000080F14BFC823882343EA05430831036026
:10292000416062B630BC704708300222EDE70522F4
:10293000EBE708300422E8E7094A52F8230038B1EF
:10294000084A52F82300416042F8231062B6E9E7D2
:1029500042F82310034AF7E70080FF1F40A3FF1F40
:1029600008A3FF1F18A3FF1F2DE9F04FDFF818B3CE
:10297000DFF818A387B044E0AE4F4FEA930807EBA7
:10298000C809013ED9F8042003F00803F6B2A2F109
:10299000080003F0FF04002B40F0048157F83830A2
:1029A0001B0C99B222F8081C002B00F0F280A24BFD
:1029B00022F8064C42F8044C53F82620002A00F076
:1029C0006E819E4D55F8263058609D4C45F8260086
:1029D00034F81630194424F8161000F087FD00284A
:1029E00000F05681974A984B19F0080F00F1080043
:1029F00018BF1346C9F8040047F8383008238BF88D
:102A000000309BF80040E4B261071BD58F4B1B7868
:102A1000ABB18F490A7802F0FF032AB1013BDBB268
:102A20000B70002B00F0EF848A490A7802F0FF0354
:102A30002AB1013BDBB20B70002B00F0F7800423BE
:102A40008BF8003004F0080303F0FF02002B00F0C5
:102A5000D6809AF80030DBB21E098DD19C08DFF8D1
:102A6000D49159F8342009EBC401C2F38302013A2E
:102A700049680C2A7ED8DFE802F081817D7D7D7D6A
:102A80007D7D477D7D7D07000868734D4A68734FE3
:102A9000734E286081B240F281606A4B6A604FF0E9
:102AA000010E0022814249F834303A60C9F8102002
:102AB000C9F8182086F800E05E4C00F2F480B1F509
:102AC000D06F80F07883B1F5817F00F0628300F2EF
:102AD0008782802900F0EC82822940F01E83A98839
:102AE00001F07F01042900F218835E485E4C8900E2
:102AF0000844227062700278930740F1798384F869
:102B000000E04FF0020ED8E2544F3A6842B3574B00
:102B1000534E5749188834780D784028864645F03A
:102B2000020828BF4FF0400E002C84F001043470DE
:102B3000CEEB00000CBF8824C82409EBC80680B285
:102B400085F0010544EA0E447260188049F8384067
:102B500072440D7018B9BEF1400F18BF00223A60E0
:102B60003D4B1A88B2F5A06F04D100219A785970B4
:102B7000404B1A70404A012313703FE7364A1588CC
:102B800042F22100854200F0FF812E4A49F83420AC
:102B9000F0E72C4A2C4B19F0080F18BF134647F8E2
:102BA00038302BE700F0C2FC344A354952F8263061
:102BB000002B00F0B68158688C5D42F8260003F1C6
:102BC0000802C9F80420032C05D8DFE804F0120F2E
:102BD000150204228A551A8819F0080F0CBF8823A1
:102BE000C82343EA024347F8383007E702228A55F0
:102BF000F1E703228A55EEE705228A55EBE7E00765
:102C000000F11A82210600F14982A20706D51D4A69
:102C10001D4913780220DBB213700870E30602D559
:102C2000194B10221A7007B0BDE8F08F00F0EAFDD2
:102C300005E700BF0080FF1FB4A2FF1F60A2FF1FB7
:102C4000B4A3FF1FC8004000880040003CA3FF1F42
:102C5000C5A2FF1F44A3FF1F28A3FF1F5CA2FF1FE5
:102C6000C4A2FF1FC020074034A3FF1F70A2FF1F94
:102C700030A3FF1F982007409420074008A3FF1FA0
:102C800040A3FF1F88200740802007409020074076
:102C9000AB4A47F83800137801331370AEE643F8B7
:102CA0002600A84D91E642F22100814200F03581D4
:102CB00000F2AF81B1F5086F00F01B82B1F5106F23
:102CC00040F02B82226AA049A8780870120600F111
:102CD0004583D9F828209D49130600F13A83D9F895
:102CE00030209A49150600F12F83D9F838209749EA
:102CF000140600F12483D9F840209449100600F10D
:102D00001983D9F848209149120600F10E83D9F8A9
:102D100050208E49130600F10383D9F858208B49BF
:102D2000150600F1F882D9F860208849140600F1F0
:102D30002983D9F868208549100600F11E83D9F847
:102D400070208249120600F11383D9F878207F4958
:102D5000130600F10883D9F880207C49150600F19C
:102D60001C83D9F888207949140600F11083D9F81A
:102D700090207649100600F1C882D9F8982073494E
:102D8000120600F1BC827248724A7349019073487E
:102D90006C4D734C049700230596029580461746A8
:102DA0000E461D460394386828B1446800F0BEFB07
:102DB0002046002CF9D100233B60029B30681A4664
:102DC000002342F8253028B1446800F0AFFB2046CC
:102DD000002CF9D100223260019A98F80030114697
:102DE000002241F8042B039A0191023B4FF00001AD
:102DF00022F81510032B09D8DFE813F04B0104006B
:102E00004B0104004FF0010388F800300135042D18
:102E100007F1040706F1040608F10108C3D1514C7B
:102E2000514B2278464D049F059E002129701A704F
:102E3000130700F14F8262784C49DFF810810A7065
:102E400010074FF00001C9F83010C9F8381000F130
:102E50002B824749A2780A700021C9F85010C9F89E
:102E600058101107DFF8E48000F1DC81E278414975
:102E7000364C0A7000211207C9F87010C9F8781092
:102E800000F1B98133780193002183F00102C9F880
:102E90009010C9F89810002002908046844604469D
:102EA00035490D7845F0020E09EBCE030393019BE3
:102EB000002B039B5C600CBF8824C82444EA0803F1
:102EC00085F0010449F83E3032700C70DFF87CE088
:102ED0002A4BDFF8A480002840F02681BCF1400F87
:102EE0001BD144F0020C09EBCC03029CDFF85CE040
:102EF0005C60002A40F02E81020442F088029DF8B6
:102F000004304EF83C20044433700D7023464028B2
:102F100003D100201A4A3B6010801A4A0123137023
:102F200028E68B5D032B00F22D8101A252F823F0DD
:102F3000FD290000FD290000873000008D300000D1
:102F400031A3FF1F60A2FF1F3CA3FF1F0080FF1FD4
:102F500018A3FF1FB4A2FF1F08A3FF1F40A3FF1F5A
:102F6000B4A3FF1F848B0000C4200740C820074083
:102F7000CC200740D020074030A3FF1FC4A2FF1F72
:102F800070A2FF1F94200740928892B9B14A0D7831
:102F90004878157050708D78C8789570D07010682A
:102FA0000D79157186284D7989795571917100F0E7
:102FB000A580A949A94E0A78307882F00105002839
:102FC00042F002020D700CBF8821C82149F832106E
:102FD00009EBC20280F00100002130705160D4E59D
:102FE00040F20232914240F08D80A98801F07F01C9
:102FF000042900F292806A88002A40F08E80984866
:10300000CDF804E089000844017841F00201017024
:1030100041E742F2212081427BD1A988002940F07A
:10302000E480904B904A9148AC781D681560CDF8CB
:1030300004E00A4604702EE78D4B8E4886491A61DB
:103040004FF0020E80F800E0854F0A708A4919603F
:1030500099608A4E8A4D8B4C9A610D213970FF21FF
:103060003170DFF840E229702270874D874A8EF870
:1030700000109F27012406F8047C5D600470DA606C
:1030800007B0BDE8F08F00238B55B7E401238B55C3
:10309000B4E44FF0000388F80030B7E67049784B8D
:1030A00080220D2008701A70A2077FF5B7ADAEE53B
:1030B000774C4FF0020E22706270EA88724580F001
:1030C000A38165490D78402A944645F0020E28BF39
:1030D0004FF0400C04EB0C0309EBCE0002930123EC
:1030E00044604FEA0C48CCEB020001930022C82454
:1030F000E4E6684A664C12782270DEE7664A0F21E1
:10310000117056E7B1F5A06F07D10123002201939A
:10311000C1E642F221329142F7D0514A0F23137097
:10312000544A0123137025E540287FF6DAAE44F0B7
:1031300002040EEBC401029E4E60BAB19DF8041069
:10314000564A19703346403888F8005040334EF8DC
:103150003420DFE69DF8043033700204029B0D70CA
:1031600042F0C80203444EF83C20D0E69DF804101B
:103170001970029B404A88F80050403840334EF89E
:103180003420C7E619F0080F0CBF022303238B5528
:1031900034E4A98801F07F010429BED86A88002A96
:1031A000BBD12F48CDF804E089000844017821F014
:1031B000020101706FE63A4A5468002CADD068886D
:1031C000B5F804E003E00C325468002CA5D0138855
:1031D0008342F8D153887345F5D1000A03280CBF08
:1031E00094F800E0B2F808E067E7CDF804E052E6B2
:1031F0004FF0020E61E700F079F9002800F0F1804D
:1032000008301D4AC4F88400C4F8802000F06EF92C
:10321000002800F0E0800830204AC9F88C00C9F886
:1032200088202FE600F062F9002800F0E6800830E0
:10323000114AC8F86400C8F8602000F057F9002867
:1032400000F0D5800830154AC9F86C00C9F868202C
:103250000CE600BFBCA3FF1F30A3FF1FC4A2FF1FCB
:10326000C020074058A2FF1FC4A3FF1F54A3FF1F85
:103270000080FF1F942007408800400088200740FE
:10328000802007409820074074A2FF1FC8A2FF1F9C
:1032900034A3FF1F3CA3FF1FC5A2FF1FC8004000AF
:1032A000888B00008C20074000F020F9002800F0F7
:1032B0008C8008305D4AC8F84400C8F8402000F00F
:1032C00015F900287BD00830594AC9F84C00C9F8D4
:1032D0004820BEE500F00AF900286AD00830534AB9
:1032E000C9F82400C9F8202000F000F900285AD0BD
:1032F00008304F4AC9F82C00C9F828209BE5D1F8BE
:103300009C00083800F012F93DE5D1F89400083827
:1033100000F00CF931E5C86D083800F007F902E556
:10332000486D083800F002F9F7E4C86C083800F07E
:10333000FDF8ECE4486C083800F0F8F8E1E4C86BFC
:10334000083800F0F3F8D6E4486B083800F0EEF8DF
:10335000CBE4C86A083800F0E9F8C0E4606A0838CD
:1033600000F0E4F8B5E4C86F083800F0DFF8F2E4E4
:10337000486F083800F0DAF8E7E4C86E083800F063
:10338000D5F8DCE4486E083800F0D0F8D1E4D1F884
:103390008C00083800F0CAF8E9E4D1F88400083855
:1033A00000F0C4F8DDE42A78C9F8280001322A7058
:1033B00041E52A78C9F8200001322A7094E72A787A
:1033C000C9F8480001322A7043E52A78C8F840005D
:1033D00001322A7073E72A78C9F8880001322A700E
:1033E00050E52A78C4F8800001322A700EE72A7866
:1033F000C9F8680001322A7038E52A78C8F86000F8
:1034000001322A7019E700BEBEF1400FF44628BF12
:103410004FF0400C04EB0C0302930123CCEB0E00A5
:103420004FEA0C48002201933AE500BF88004000B3
:10343000C80040002DE9F843204C00F0EBFB0022CF
:1034400004F1A00023461A605A60083383424FF00B
:103450000001F8D11A4A1B4F13681B4D1B481C4E24
:10346000DFF87880DFF878C0DFF87890DFF878E070
:1034700043F480231360C4F307233B70C4F3074372
:103480002B70240EFF2302F528320470114D88F8AA
:10349000003011488CF80030D4323370012389F8A1
:1034A000003070268EF800104FF40074102107F8D9
:1034B000183C2E7004601170BDE8F8830080FF1F77
:1034C000348004409C200740B0200740B4200740CF
:1034D0001020074049E400E008E100E080200740B8
:1034E00088200740942007400021074072B60D480D
:1034F0000268B2FA82F30B2B10DC4FF00041D94086
:1035000022EA0102026062B6074803EBC303DB0054
:10351000C2180021C15010465160704762B60020A9
:10352000704700BFF089FF1FBC83FF1F0D4B0E4A81
:10353000C31AA2FB03231B090B2B0CD80B4A1278CE
:1035400052B972B60A484FF00041026821FA03F3FB
:103550001A43026062B67047064A1278002AF0D019
:10356000FFF75CB9BC83FF1F398EE33831A3FF1F1F
:10357000F089FF1F3CA3FF1F38B50F4D286878B1B5
:1035800043880288C118013393420C7A02D24380E7
:10359000204638BDFFF7CAFF002320462B6038BD08
:1035A000064B1B782BB10320FFF704F92860002895
:1035B000E6D14FF0FF3038BD50A3FF1F3CA3FF1FE3
:1035C00010B5094C206818B143881844007A10BD22
:1035D000064B1B782BB10320FFF7ECF82060002886
:1035E000F2D14FF0FF3010BD50A3FF1F3CA3FF1FCF
:1035F000044B054A1B6890881BB11A885B88D31A54
:103600001844704750A3FF1FB4A3FF1F0B4B1B7838
:103610009BB110B50A4C206848B1FFF787FF002323
:1036200003202360FFF7C6F830B1FFF77FFF0320C8
:10363000FFF7C0F80028F8D110BD70473CA3FF1F6A
:1036400050A3FF1F2DE9F04FDFF8F89083B001225F
:1036500089F80020019169B3DFF8EC80364F019EB4
:103660008346D8F80000B0B3344D4488C4F140011B
:10367000B14228BF314604EB010E00221FFA8EFE34
:103680002A70761AA0F802E000F1080251B1013C5C
:10369000224459441BF8014B02F8014F8B45F9D1E4
:1036A000B0F802E0BEF13F0F0BD8254A052111709A
:1036B000002ED6D10198002389F8003003B0BDE870
:1036C000F08F4022028001460420FFF70BF9002210
:1036D000C8F80020E9E73A782AB3184D4DF2E9041A
:1036E0004FF0010A07E0013C16D02A78A2B900F099
:1036F00085F93A78BAB10420FFF77AF80728F2D8AA
:1037000089F800A0FFF7F2FEC8F800000028ACD14D
:103710000C4B013C1870E8D101234FF0FF302B70A7
:1037200003B0BDE8F08F00234FF0FF3089F8003080
:1037300003B0BDE8F08F00BF3CA3FF1F4CA3FF1FE9
:1037400044A3FF1F45A3FF1F48A3FF1F00B583B07D
:1037500002AB012103F8010D1846FFF773FF03B018
:103760005DF804FB38B50E4D0E4C2868012323701C
:1037700028B1408800232370C0F1400038BD0A4BB7
:103780001B7813B90020207038BD0420FFF730F8F3
:103790000728F7D8FFF7AAFE28600028E9D1F1E74B
:1037A00048A3FF1F45A3FF1F3CA3FF1FF8B5114B04
:1037B0001B788BB1104E114D346801272F7064B106
:1037C0000F4A638800271770214623800420FFF7E3
:1037D00089F8376000232B70F8BDFFF787FE084B90
:1037E00028B1014604201C70FFF77CF8F2E71F7037
:1037F000F0E700BF3CA3FF1F48A3FF1F45A3FF1F27
:1038000044A3FF1F38B50E4B1B7873B90D4C2168CC
:1038100061B103F0FF054B880B800420FFF762F8CD
:10382000256038BD084B01221A7038BDFFF75EFED7
:103830000028F7D00146BDE838400420FFF752B811
:1038400045A3FF1F48A3FF1F44A3FF1F70B5EFF35D
:10385000108272B60C4C206880B10C4E0025436972
:10386000236073B19D6102B962B64577836898475A
:10387000EFF3108272B620680028F0D102B962B668
:1038800070BD3360EFE700BF58A3FF1F5CA3FF1FAD
:10389000FFF7DCBF024A136801331360704700BFB3
:1038A00058A2FF1FF8B50E4671B17AB1074614460B
:1038B00000253B6816F8011B1B6838469847013CF9
:1038C0000544F6D12846F8BD0846F8BD1046F8BDB7
:1038D00000B5064A036812885B6883B001A9ADF899
:1038E00004200222984703B05DF804FB588B0000C7
:1038F00010B50446006800F0B3FE204610BD00BFBE
:1039000038B543688B4201D3012038BD0D460446CB
:103910000131006801F030FA0028F6D0A36884E88D
:103920002100002BF0D10370EEE700BFF8B504468C
:10393000154632B9036803B11A700023A36020460C
:10394000F8BD0E461146FFF7DBFF074648B9206871
:1039500010B100F085FE276000236360A36020465D
:10396000F8BDA5603146206801F010FCE7E700BF14
:1039700038B500230446036043608360037341B19C
:1039800008460D4601F07CFC294602462046FFF71A
:10399000CDFF204638BD00BF814203D08A68096848
:1039A000FFF7C4BF704700BF83688B4203D900682C
:1039B00008B108447047024900230B70084670475D
:1039C00069A3FF1F08B5FDF76BFAFDF709FB00F0CF
:1039D00015F8FAE7FFF71ABEFFF7F2BDFFF7CCBD07
:1039E000FFF706BEFFF7E2BEFFF7BCBE0846114672
:1039F000FFF728BE0846FFF7A9BE00BF2DE9F84330
:103A0000314E337893B1314F3A787AB90122D907E0
:103A10003A7036D49A0719D400225B073A7005D55C
:103A20002B4B1A6812B1EFF305820AB1BDE8F88397
:103A3000EFF3108172B6186818B1264C2278002A6C
:103A40002ED00029F2D162B6BDE8F883DFF890806D
:103A500098F80020002ADFD0DFF88890002405E0E5
:103A6000013498F80030E4B2A34212D959F8245036
:103A70002B6828461B6998470028F1D02B69984786
:103A8000EEE7FFF7B5FDC8B9134B1B781BB93378C8
:103A9000C0E73378C0E7337803F0FE033370B9E74B
:103AA00045691D60012323705DB1AA6101B962B649
:103AB00000254577836898472570B7E700F0ECF854
:103AC000E2E7064B1D60F1E7048AFF1F6AA3FF1FB0
:103AD00064A3FF1F68A3FF1F7A8AFF1F60A3FF1F55
:103AE0007CA3FF1F70A3FF1F30B42948294A2A4B2B
:103AF0002A4D6024E121047011701B78284C082B9A
:103B000030D00A2B2748284937D00C2B0CBF352240
:103B10005D2212232A60236002600B60234B24493C
:103B20001B78244ABBB101230B601360224B23494D
:103B30001B78234A012B26D9042B0FD9082B1ED919
:103B4000102B94BF862387230B6013601D4B01222B
:103B50001A7030BC70470B601360E7E784230B607A
:103B60001360F3E700F58E200F490830212213235C
:103B70002A60236002600B60D0E73922F7E78523D3
:103B80000B601360E2E780230B601360DEE700BF89
:103B90000040074001400740058AFF1F08B003406E
:103BA0000CB0034008B00B400CB00B406CA3FF1FDF
:103BB00020B0034020B00B40068AFF1F24B0034012
:103BC00024B00B406BA3FF1FF0B44D1E2E46002403
:103BD00000E00134B0FBF2F302FB1300092800F10E
:103BE00030078ABF3730F8B2C0B206F8010F184666
:103BF000002BEED10A1953704CB1107815F8016FF3
:103C000028700133E01A834202F80169F5DB0846A7
:103C1000F0BC704770B584B072B6194B194D1A4894
:103C2000702241260F2480211A702E701A460470CB
:103C3000197013781B06FCD5144B186862B6144B28
:103C4000144C984298BF00EB800001A998BF400037
:103C50000A22FFF7B9FF01A92046002311F8012B22
:103C600001333AB10A2B20F8022FF7D11623237023
:103C700004B070BD5B00DBB2237004B070BD00BF48
:103C80000000024007000240060002400800024017
:103C90007F969800648AFF1F704700BF0B4601465D
:103CA000184600F0A1BC00BF81F0004102E000BF57
:103CB00083F0004330B54FEA41044FEA430594EAEC
:103CC000050F08BF90EA020F1FBF54EA000C55EA27
:103CD000020C7FEA645C7FEA655C00F0E2804FEAF8
:103CE0005454D4EB5555B8BF6D420CDD2C4480EADA
:103CF000020281EA030382EA000083EA010180EA0A
:103D0000020281EA0303362D88BF30BD11F0004F57
:103D10004FEA01314FF4801C4CEA113102D040428D
:103D200061EB410113F0004F4FEA03334CEA1333C8
:103D300002D0524263EB430394EA050F00F0A780E0
:103D4000A4F10104D5F1200E0DDB02FA0EFC22FADB
:103D500005F2801841F1000103FA0EF2801843FACF
:103D600005F359410EE0A5F120050EF1200E012AC0
:103D700003FA0EFC28BF4CF0020C43FA05F3C018FE
:103D800051EBE37101F0004507D54FF0000EDCF177
:103D9000000C7EEB00006EEB0101B1F5801F1BD320
:103DA000B1F5001F0CD349085FEA30004FEA3C0C24
:103DB00004F101044FEA445212F5800F80F09A801A
:103DC000BCF1004F08BF5FEA500C50F1000041EB1E
:103DD000045141EA050130BD5FEA4C0C404141EB22
:103DE000010111F4801FA4F10104E9D191F0000F49
:103DF00004BF01460020B1FA81F308BF2033A3F1CC
:103E00000B03B3F120020CDA0C3208DD02F1140CC2
:103E1000C2F10C0201FA0CF021FA02F10CE002F1FD
:103E20001402D8BFC2F1200C01FA02F120FA0CFCF6
:103E3000DCBF41EA0C019040E41AA2BF01EB04513F
:103E4000294330BD6FEA04041F3C1CDA0C340EDC3D
:103E500004F11404C4F1200220FA04F001FA02F380
:103E600040EA030021FA04F345EA030130BDC4F13E
:103E70000C04C4F1200220FA02F001FA04F340EA33
:103E80000300294630BD21FA04F0294630BD94F0E4
:103E9000000F83F4801306BF81F480110134013DCB
:103EA0004EE77FEA645C18BF7FEA655C29D094EA3C
:103EB000050F08BF90EA020F05D054EA000C04BFBA
:103EC0001946104630BD91EA030F1EBF00210020A5
:103ED00030BD5FEA545C05D14000494128BF41F044
:103EE000004130BD14F580043CBF01F5801130BDA8
:103EF00001F0004545F0FE4141F470014FF0000033
:103F000030BD7FEA645C1ABF194610467FEA655CE3
:103F10001CBF0B46024650EA013406BF52EA033585
:103F200091EA030F41F4002130BD00BF90F0000F73
:103F300004BF0021704730B54FF4806404F13204AF
:103F40004FF000054FF0000150E700BF90F0000F68
:103F500004BF0021704730B54FF4806404F132048F
:103F600010F0004548BF40424FF000013EE700BF5F
:103F700042004FEAE2014FEA31014FEA02701FBFEF
:103F800012F07F4393F07F4F81F06051704792F0C1
:103F9000000F14BF93F07F4F704730B54FF460743B
:103FA00001F0004521F0004120E700BF50EA010286
:103FB00008BF704730B54FF000050AE050EA010233
:103FC00008BF704730B511F0004502D5404261EBA3
:103FD00041014FF4806404F132045FEA915C3FF4E4
:103FE000DCAE4FF003025FEADC0C18BF03325FEA7D
:103FF000DC0C18BF033202EBDC02C2F1200300FA32
:1040000003FC20FA02F001FA03FE40EA0E0021FA56
:1040100002F11444C1E600BF70B54FF0FF0C4CF440
:10402000E06C1CEA11541DBF1CEA135594EA0C0FF6
:1040300095EA0C0F00F0DEF82C4481EA030621EA31
:104040004C5123EA4C5350EA013518BF52EA03356C
:1040500041F4801143F4801338D0A0FB02CE4FF01E
:104060000005E1FB02E506F00042E0FB03E54FF04E
:104070000006E1FB03569CF0000F18BF4EF0010E46
:10408000A4F1FF04B6F5007F64F5407404D25FEA42
:104090004E0E6D4146EB060642EAC62141EA5551F5
:1040A0004FEAC52040EA5E504FEACE2EB4F1FD0C37
:1040B00088BFBCF5E06F1ED8BEF1004F08BF5FEAB5
:1040C000500E50F1000041EB045170BD06F0004667
:1040D00046EA010140EA020081EA0301B4EB5C0414
:1040E000C2BFD4EB0C0541EA045170BD41F480110C
:1040F0004FF0000E013C00F3AB8014F1360FDEBF31
:10410000002001F0004170BDC4F10004203C35DA0C
:104110000C341BDC04F11404C4F1200500FA05F38F
:1041200020FA04F001FA05F240EA020001F0004230
:1041300021F0004110EBD37021FA04F642EB0601A6
:104140005EEA430E08BF20EAD37070BDC4F10C04D0
:10415000C4F1200500FA04F320FA05F001FA04F294
:1041600040EA020001F0004110EBD37041F1000180
:104170005EEA430E08BF20EAD37070BDC4F120058B
:1041800000FA05F24EEA020E20FA04F301FA05F2F3
:1041900043EA020321FA04F001F0004121FA04F29B
:1041A00020EA020000EBD3705EEA430E08BF20EA6B
:1041B000D37070BD94F0000F0FD101F000464000A5
:1041C00041EB010111F4801F08BF013CF7D041EA27
:1041D000060195F0000F18BF704703F0004652002B
:1041E00043EB030313F4801F08BF013DF7D043EAFC
:1041F0000603704794EA0C0F0CEA135518BF95EAB2
:104200000C0F0CD050EA410618BF52EA4306D1D138
:1042100081EA030101F000414FF0000070BD50EA57
:10422000410606BF1046194652EA430619D094EAE1
:104230000C0F02D150EA013613D195EA0C0F05D1CB
:1042400052EA03361CBF104619460AD181EA03011F
:1042500001F0004141F0FE4141F470014FF00000D7
:1042600070BD41F0FE4141F4780170BD70B54FF072
:10427000FF0C4CF4E06C1CEA11541DBF1CEA1355F2
:1042800094EA0C0F95EA0C0F00F0A7F8A4EB0504D4
:1042900081EA030E52EA03354FEA013100F08880CB
:1042A0004FEA03334FF0805545EA131343EA126394
:1042B0004FEA022245EA111545EA10654FEA002649
:1042C0000EF000419D4208BF964244F1FD0404F502
:1042D000407402D25B084FEA3202B61A65EB03055E
:1042E0005B084FEA32024FF480104FF4002CB6EB1B
:1042F000020E75EB030E22BFB61A754640EA0C009B
:104300005B084FEA3202B6EB020E75EB030E22BFDA
:10431000B61A754640EA5C005B084FEA3202B6EB1B
:10432000020E75EB030E22BFB61A754640EA9C00DA
:104330005B084FEA3202B6EB020E75EB030E22BFAA
:10434000B61A754640EADC0055EA060E18D04FEA68
:10435000051545EA16754FEA06164FEAC30343EA08
:1043600052734FEAC2025FEA1C1CC0D111F4801FD5
:104370000BD141EA00014FF000004FF0004CB6E7CE
:1043800011F4801F04BF01430020B4F1FD0C88BF6D
:10439000BCF5E06F3FF6AFAEB5EB030C04BFB6EB78
:1043A000020C5FEA500C50F1000041EB045170BD6B
:1043B0000EF0004E4EEA113114EB5C04C2BFD4EB98
:1043C0000C0541EA045170BD41F480114FF0000E1C
:1043D000013C90E645EA060E8DE60CEA135594EA98
:1043E0000C0F08BF95EA0C0F3FF43BAF94EA0C0F9B
:1043F0000AD150EA01347FF434AF95EA0C0F7FF410
:1044000025AF104619462CE795EA0C0F06D152EA63
:1044100003353FF4FDAE1046194622E750EA410647
:1044200018BF52EA43067FF4C5AE50EA41047FF458
:104430000DAF52EA43057FF4EBAE12E74FF0FF3CBD
:1044400006E000BF4FF0010C02E000BF4FF0010C8E
:104450004DF804CD4FEA410C7FEA6C5C4FEA430C07
:1044600018BF7FEA6C5C1BD001B050EA410C0CBF56
:1044700052EA430C91EA030F02BF90EA020F0020B8
:10448000704710F1000F91EA030F58BF994208BF1F
:1044900090422CBFD8176FEAE37040F001007047DC
:1044A0004FEA410C7FEA6C5C02D150EA013C07D133
:1044B0004FEA430C7FEA6C5CD6D152EA033CD3D07E
:1044C0005DF8040B704700BF8446104662468C4678
:1044D0001946634600E000BF01B5FFF7B7FF0028AB
:1044E00048BF10F1000F01BD4DF808EDFFF7F4FFD4
:1044F0000CBF012000205DF808FB00BF4DF808ED5F
:10450000FFF7EAFF34BF012000205DF808FB00BF81
:104510004DF808EDFFF7E0FF94BF012000205DF8A3
:1045200008FB00BF4DF808EDFFF7CEFF94BF012058
:1045300000205DF808FB00BF4DF808EDFFF7C4FF51
:1045400034BF012000205DF808FB00BF4FEA410C9A
:104550007FEA6C5C02D150EA013C0AD14FEA430C7D
:104560007FEA6C5C02D152EA033C02D14FF00000BA
:1045700070474FF001007047024B0A460146186829
:1045800000F002B8A88EFF1F10B502FB01F100F089
:104590006FF80446D8B150F8042C22F00302043A14
:1045A000242A18D8132A14D900231B2A0360436035
:1045B00016D9242A8360C36011BF00F11002036181
:1045C000436100F11802002313605360936020469A
:1045D00010BD0246F7E7002100F07CFB204610BD2D
:1045E00000F10802EFE700BF13460A460146022029
:1045F00000F00CBF014B1868704700BFA88EFF1F6A
:1046000070B50F4E0F4D761BB61018BF002405D0A5
:10461000013455F8043B9847A642F9D10A4E0B4D98
:10462000761B04F01FFCB61018BF002406D001341E
:1046300055F8043B9847A642F9D170BD70BD00BF44
:10464000708E0000708E00007C8E0000708E000066
:10465000024B0146186800F00BB800BFA88EFF1F80
:10466000024B0146186800F095BF00BFA88EFF1FDF
:104670002DE9F04F01F10B05162D83B0064640F2EF
:104680009F8035F0070500F1BF80A94200F2BC8091
:1046900000F06EFBB5F5FC7FC0F09C826B0A00F069
:1046A000BA80042B00F28381A80900F1390E4FEA89
:1046B0004E033830C44F07EB8303A3F108015C6855
:1046C000A14207D1ACE0002A80F2AC80E468A142AC
:1046D00000F0A680636823F003035A1B0F2AF2DD63
:1046E000B9493C6901F1080E744500F0B381636873
:1046F00023F003035A1B0F2A00F39981002AC1F803
:1047000014E0C1F810E080F29E80B3F5007F80F0E5
:104710006781DB0803F1010C01229B1002FA03F30D
:104720004A6851F83C80C4F8088001EBCC091A4370
:10473000A9F10803E3604A6041F83C40C8F80C4026
:10474000831001249C40944200F28A80144206D1D6
:1047500020F003006400144200F10400FAD007EBDB
:10476000C009CC468046DCF80C108C4507D173E1BB
:10477000002A80F28181C9688C4500F06D814B6808
:1047800023F003035A1B0F2AF2DD0C46D1F80CC0AC
:1047900054F8088F4B1945F001054D6042F00101B6
:1047A000C8F80CC03046CCF808807B613B61C3F888
:1047B0000CE0C3F808E059609A5000F0DBFA1FE003
:1047C000102921D800F0D4FA1025062302207E4FAC
:1047D00007EB8303A3F108025C68944200F0458173
:1047E0006368E168A56823F00303234430465A68F0
:1047F000E96042F001028D605A6000F0BBFA0834B3
:10480000204603B0BDE8F08F00240C23204633601F
:1048100003B0BDE8F08F80234FF0400E3F2049E702
:1048200070465DE72344E1685A68A56842F00102DA
:10483000E96030468D605A6000F09CFA08342046EA
:1048400003B0BDE8F08F234430465A6842F00102BD
:104850005A6000F08FFA0834204603B0BDE8F08FAC
:10486000BC68636823F00308A84504D3C5EB0803BC
:104870000F2B00F38C80554BDFF860911A68D9F844
:10488000003001332A4404EB080A00F0608102F58D
:1048900080520F3222F47F6222F00F02114630461E
:1048A000019200F061FCB0F1FF3F8346019A00F0F5
:1048B0005881824500F2FC80454B1968DA45114465
:1048C000196000F05381D9F80000DFF810E10130E1
:1048D0001BBFCAEB0B0A5144CEF800B019601BF0A5
:1048E000070100F01781C1F10800C1F58051834430
:1048F00008315A44C2F30B02C2EB01094946304663
:10490000019300F031FC431C019B00F03F81CBEB95
:1049100000024A4442F001021968C7F808B049444D
:10492000BC42CBF804201960DFF8A49016D0B8F18F
:104930000F0F40F2FD806268A8F10C0323F007031B
:10494000E01802F001024FF0050E1A430F2B6260CF
:10495000C0F804E0C0F808E000F21C811D4BBC6800
:104960001A68914288BF19601B4B1A6891426268AD
:1049700088BF196022F003029542A2EB050301D81B
:104980000F2B04DC304600F0F5F9002438E76219FB
:1049900043F0010345F0010565603046BA6053609D
:1049A00000F0E8F90834204603B0BDE8F08F142B7E
:1049B00071D9542B00F2A480280B00F16F0E4FEA3E
:1049C0004E036E3076E600BF1890FF1F88A3FF1FCE
:1049D0008CA3FF1F84A3FF1F80A3FF1F2494FF1F2E
:1049E0005A0A042A5ED9142A00F2B38002F15C014B
:1049F00049005B3207EB810C57F82110DFF8DC81AE
:104A0000ACF1080C8C4500F088804A6822F0030263
:104A1000934202D289688C45F7D1D1F80CC07A68EC
:104A2000C4F80CC0A160CCF80840CC6088E66319DB
:104A300042F0010745F00105656030464B610B61AE
:104A4000C3F80CE0C3F808E05F609A50083400F047
:104A500091F9D5E64A6873E608F1010818F0030FEA
:104A60000CF1080C7FF47FAE30E0DC68A34208BF95
:104A700002303FF435AEB3E60B440C465A68C968C1
:104A800054F8085F42F001025A603046E9608D60D8
:104A900000F070F9B4E603F15C0E03F15B004FEA3D
:104AA0004E0307E69A0902F1390149003832A1E7BD
:104AB000BC424A4B3FF400AF9C68626822F003029C
:104AC0005AE759F80839994540F0828010F0030FF1
:104AD00000F1FF30F5D17B6823EA04037B606400BA
:104AE0009C423FF6BDAE002C3FF4BAAE1C4240469D
:104AF0007FF435AE64001C4200F10400FAD02EE6CB
:104B0000B3F5AA7F18D8E80B00F1780E4FEA4E03F0
:104B10007730CFE54FF48051EBE60121D8F804302F
:104B2000921001FA02F21A43C8F80420614677E7AE
:104B30000123CBF8043025E740F25452934220D8A9
:104B4000A80C00F17D0E4FEA4E037C30B2E5103226
:104B5000A4E6542A26D81A0B02F16F0149006E32DE
:104B600048E7BC68626822F0030205E7CAF30B005D
:104B700000287FF4A8AE4244BB6842F001025A60AC
:104B8000ECE6FE234FF07F0E7E2093E501224FF0EE
:104B90000009C1E604F10801304600F0FBFCD9F839
:104BA0000010DBE6B2F5AA7F05D8DA0B02F1780136
:104BB000490077321EE740F254518A4205D89A0CD8
:104BC00002F17D0149007C3214E7FE217E2211E7CB
:104BD0007B6884E7E808431C5B00F8E51890FF1F3A
:104BE00082B049B15AB16BB113780B601278101CC6
:104BF00018BF012002B0704701A9002AF3D1104666
:104C000002B070476FF00100F4E700BF8842F0B5D2
:104C10000DD98B1898420AD28118002A51D09A1ABD
:104C200013F8014D01F8014D9342F9D1F0BD0F2A5F
:104C300048D941EA00039B0746D100F1100401F175
:104C40001003154653F8106C44F8106C53F80C6CB4
:104C500044F80C6C53F8086C44F8086C103D53F899
:104C6000046C44F8046C0F2D03F1100304F11004DC
:104C7000E8D8A2F1100323F00F0302F00F0E103357
:104C8000BEF1030F1944034421D91E1F0D4674467B
:104C9000043C55F8047B46F8047F032CF8D8AEF1A9
:104CA000040424F0030404342344214402F00302E6
:104CB00062B1013B0A4411F8014B03F8014F8A42EB
:104CC000F9D1F0BD0346F3E70346F2E7F0BD7246C3
:104CD000EEE700BF70B4840746D0541E002A41D0CE
:104CE000CDB2034602E0621EE4B3144603F8015B52
:104CF0009A07F8D1032C2ED9CDB245EA05250F2C01
:104D000045EA054519D903F110022646103E0F2E3B
:104D100042F8105C42F80C5C42F8085C42F8045C13
:104D200002F11002F2D8A4F1100222F00F0204F0F6
:104D30000F041032032C13440DD91E462246043AA8
:104D4000032A46F8045BFAD8221F22F00302043239
:104D5000134404F003042CB1C9B21C4403F8011B32
:104D6000A342FBD170BC704714460346C2E700BFA4
:104D7000704700BF704700BF024B0A4601461868E3
:104D800000F002B8A88EFF1F2DE9F04F174683B040
:104D9000002900F0C1800E46814607F10B05FFF7A0
:104DA000E7FF56F804EC162D2EF00304A6F10808D0
:104DB00040D810221546AF4241D8944275DAC94B0B
:104DC000996808EB04008842416800F0D98021F01E
:104DD000010303445B68DB077DD51EF0010F35D06E
:104DE00039464846FFF744FC0746E0B156F8043C14
:104DF00023F001034344A0F108029A4200F04481E9
:104E0000221F242A00F23181132A00F20481034672
:104E10003246116819605168596092689A6031464B
:104E2000484600F0B7FB4846FFF7A4FF384603B0FA
:104E3000BDE8F08F25F00705002D2A46BBDA0C23CC
:104E40000020C9F8003003B0BDE8F08F56F8083CE8
:104E5000C3EB080ADAF8043023F0030C04EB0C036C
:104E60009342BDDB5746DAF80C1057F8080F221FA3
:104E7000242AC160886000F21781132A40F212814F
:104E80003168CAF808107168CAF80C101B2A00F2C1
:104E90002B8108360AF11002316811607168516087
:104EA000B16891603E461C46D046631B0F2B1DD84F
:104EB000D8F8043003F0010323434444C8F8043015
:104EC000636843F0010363604846FFF753FF3046D1
:104ED00003B0BDE8F08F21F003012144914221DBB2
:104EE000C36882680C46D3609A60DEE7D8F8042075
:104EF00008EB050102F00102154343F001020B44E7
:104F0000C8F804504A605A6842F0010208315A60F9
:104F1000484600F03FFBD7E7114603B0BDE8F04F2D
:104F2000FFF7A6BB1EF0010F7FF45AAF56F8083CFE
:104F3000C3EB080ADAF8043023F0030C01EB0C0E83
:104F400096458BDBC36882685746D3609A6057F8F2
:104F5000081FDAF80C30CB60221F242A996000F277
:104F60009980132A62D93368CAF808307368CAF87E
:104F70000C301B2A00F2A08008360AF1100356E01C
:104F800021F0030BA34405F11000834559DA1EF00C
:104F9000010F7FF425AF56F8081CC1EB080ADAF8B8
:104FA000041021F0030CE34458453FF757AF574630
:104FB000DAF80C1057F8080F221F242AC160886005
:104FC00000F2B480132A40F2A5803168CAF80810B4
:104FD0007168CAF80C101B2A00F2AF8008360AF17B
:104FE00010023168116071685160B16891600AEB1C
:104FF0000501C5EB0B0242F0010299604A60DAF844
:10500000043003F001031D434846CAF80450FFF77B
:10501000B1FE38465CE733680360736843601B2A5F
:1050200027D800F1080306F10802F2E63B46326891
:105030001A6072685A60B2689A603E467446D046FA
:1050400033E708EB0501C5EB0B0B4BF00102996050
:105050004A6056F8043C03F001031D43484646F8F5
:10506000045CFFF787FE304632E73146FFF7CEFD9E
:10507000D5E6B3688360F368C360242A28D000F1C2
:10508000100306F11002C4E650F8043C23F00303B9
:105090001C440AE7314638467446D046FFF7B6FD51
:1050A0003E4602E73A46F7E6314638461C46D046C9
:1050B000FFF7ACFD3E46F8E6B368CAF81030F36877
:1050C000CAF81430242A1BD010360AF11803AEE7B0
:1050D000336903617369436106F1180200F1180333
:1050E00097E600BF1890FF1FB168CAF81010F1686A
:1050F000CAF81410242A0FD010360AF11802CBE691
:105100003369CAF818307369CAF81C3018360AF1C6
:1051100020038CE73A4664E73269CAF818207269BE
:10512000CAF81C2018360AF12002B5E63146384686
:105130000193FFF76BFD019B59E7B168CAF81010A6
:10514000F168CAF81410242A03D010360AF11802A4
:1051500047E73269CAF818207269CAF81C20183665
:105160000AF120023DE700BF38B5074C0023054691
:1051700008462360FDF7DCF8431C00D038BD2368E7
:10518000002BFBD02B6038BDC8A3FF1F80EA0102B3
:10519000844612F0030F4FD111F0030F32D14DF8B6
:1051A000044D11F0040F51F8043B0BD0A3F1013270
:1051B0009A4312F0803F04BF4CF8043B51F8043B83
:1051C00016D100BF51F8044BA3F101329A4312F0FB
:1051D000803FA4F101320BD14CF8043BA24312F002
:1051E000803F04BF51F8043B4CF8044BEAD02346FF
:1051F0000CF8013B13F0FF0F4FEA3323F8D15DF8B1
:10520000044B704711F0010F06D011F8012B0CF878
:10521000012B002A08BF704711F0020FBFD031F8F0
:10522000022B12F0FF0F16BF2CF8022B8CF8002077
:1052300012F47F4FB3D1704711F8012B0CF8012BFA
:10524000002AF9D1704700BFFFFFFFFFFFFFFFFFFC
:10525000FFFFFFFFFFFFFFFFFFFFFFFFFFFFFFFF5E
:10526000FFFFFFFFFFFFFFFFFFFFFFFFFFFFFFFF4E
:10527000FFFFFFFFFFFFFFFFFFFFFFFFFFFFFFFF3E
:1052800090F800F06DE9024520F007016FF0000C86
:1052900010F0070491F820F040F049804FF000042E
:1052A0006FF00700D1E9002391F840F000F1080009
:1052B00082FA4CF2A4FA8CF283FA4CF3A2FA8CF341
:1052C0004BBBD1E9022382FA4CF200F10800A4FAA8
:1052D0008CF283FA4CF3A2FA8CF3E3B9D1E90423FC
:1052E00082FA4CF200F10800A4FA8CF283FA4CF333
:1052F000A2FA8CF37BB9D1E9062301F1200182FAED
:105300004CF200F10800A4FA8CF283FA4CF3A2FAF2
:105310008CF3002BC6D0002A04BF04301A4612BA00
:10532000B2FA82F2FDE8024500EBD2007047D1E903
:10533000002304F00305C4F100004FEAC50514F092
:10534000040F91F840F00CFA05F562EA05021CBF63
:1053500063EA050362464FF00004A9E770B5002A2E
:105360009AB005462FDB14461A464FF4027300919B
:105370000491ADF80C3011D0013C4FF6FF761E9B26
:10538000029469460594ADF80E6000F057FD421C8A
:1053900012DB009B00221A701AB070BD1E9B029493
:1053A0004FF6FF7669460594ADF80E6000F046FDB5
:1053B000431C04DB1AB070BD8B232B60E9E78B2301
:1053C0002B601AB070BD8B2303604FF0FF30F1E704
:1053D00010B582B0054C0093246813460A46014676
:1053E0002046FFF7BBFF02B010BD00BFA88EFF1F15
:1053F00021B1FF2A04D80A7001207047084670477F
:105400008A2303604FF0FF30704700BF2DE9F0475B
:10541000254C2568D5F84841064688469246994667
:10542000C4B360681F2817DC431C76B104EB800509
:105430000122C5F888A0D4F8881182401143022EB9
:10544000C4F88811C5F808911ED00230636044F892
:1054500020800020BDE8F087144B03B34FF4C870E0
:10546000FFF7F6F80446D0B1D5F84831002780E8B8
:105470008800C5F8484138460123C4F88871C4F84B
:105480008C71002EE1D0D1E7D4F88C110A43C4F816
:105490008C21DAE705F5A674C5F84841C1E74FF05D
:1054A000FF30BDE8F08700BFDC8B000051460000F4
:1054B000024B13B1024800F005B87047000000002D
:1054C000D1540000002301461A461846FFF79EBF3C
:1054D00038B5074D074C2C1BA41005D0013C55F8DE
:1054E000043D9847002CF9D1BDE8384003F0C6BC14
:1054F0000000000000000000F8B5234F0C460646EF
:10550000FFF736FCBB685D6825F00305291B01F633
:10551000EF7121F47F6121F00F01A1F58054B4F502
:10552000805F07DB00213046FFF71EFEBB682B447F
:10553000984204D03046FFF71DFC0020F8BD6142C0
:105540003046FFF711FE01300DD0104BBA681968D4
:105550002D1B45F001053046091B55601960FFF70A
:1055600009FC0120F8BD00213046FFF7FDFDBA68B7
:10557000831A0F2BDEDD064C0449246843F0010337
:10558000001B53600860D5E71890FF1F8CA3FF1F16
:105590002494FF1F002945D02DE9F0410D46804697
:1055A000FFF7E6FB55F8047C6A4927F00103A5F1F3
:1055B0000804E2188E685068B24220F0030062D0FE
:1055C000FE0750600BD455F8087CE41B01F1080E6F
:1055D000A56875453B446FD0E768EF60BD6015185E
:1055E0006D68ED0742D543F001026260E350B3F508
:1055F000007F18D2DB085A1C4D6851F83270A76042
:1056000001209B1000FA03F301EBC2001D43083890
:10561000E0604D6041F83240FC604046BDE8F0413A
:10562000FFF7A8BB70475A0A042A53D89A0902F117
:1056300039077F0002F1380501EB870051F8272078
:105640004449083890424DD0516821F003018B4203
:1056500002D292689042F7D1D068E060A260846084
:10566000D4604046BDE8F041FFF784BB95683A4FEF
:10567000BD4203443FD0D068E86043F0010285603A
:105680006260E350B3E7FF07034407D455F8082CE2
:10569000A41A1344A068E268C26090602F4A12689E
:1056A00043F00100934260608C60B6D32C4B4046BF
:1056B0001968FFF721FFB0E711184968C90744D4FA
:1056C0009168D268CA60034443F001009160606051
:1056D000E350A2E7142A17D802F15C077F0002F119
:1056E0005B05A9E7AA104B68012505FA02F21343EE
:1056F0004B600246B1E743F001024C610C61E5608A
:10570000A5606260E35088E7542A06D81A0B02F1BC
:105710006F077F0002F16E058EE7B2F5AA7F06D80B
:10572000DA0B02F178077F0002F1770584E740F297
:105730005450824206D89A0C02F17D077F0002F194
:105740007C0579E7FE277E2576E743F0010262605B
:10575000E35062E71890FF1F2090FF1F2094FF1F67
:1057600088A3FF1F044A054B1268506B002808BF2E
:105770001846F030704700BFA88EFF1FAC8EFF1F89
:1057800001F0FF01102A2BDB10F0070F08D010F8F2
:10579000013B013A8B422DD010F0070F42B3F6D1F6
:1057A000F0B441EA012141EA014122F007047FF00F
:1057B00000070023F0E80256083C85EA010586EA66
:1057C000010685FA47F5A3FA87F586FA47F6A5FAA2
:1057D00087F68EB9EED1F0BC01F0FF0102F00702AE
:1057E00032B110F8013B013A83EA010313B1F8D159
:1057F0000020704701387047002D06BF354603383A
:10580000073815F0010F07D1013015F4807F02BF72
:10581000013015F4C03F0130F0BC0138704700BFC3
:10582000C36C70B505460C464BB153F8240080B1EB
:10583000026843F8242000230361C36070BD212265
:105840000421FEF7A1FEE86403460028EDD1002004
:1058500070BD012101FA04F6721D28469200FEF780
:1058600093FE0028F3D044608660E4E731B1C36C56
:105870004A6853F82200086043F82210704700BFBE
:10588000F0B50C6983B00D46064601F1140E0027F1
:10589000DEF8000081B202FB01310B0C000C02FBB0
:1058A000003389B2013701EB0341BC424EF8041BBF
:1058B0004FEA1343ECDC3BB1AA68944207DA05EBEC
:1058C0008402013453612C61284603B0F0BD69683D
:1058D000019301313046FFF7A3FF2A69023205F137
:1058E0000C01074692000C30FCF758FCF26C69681A
:1058F000019B52F82100286042F821503D46DEE726
:10590000030C1B04B3B90004102310F07F4F04BF35
:105910000002083310F0704F04BF0001043310F090
:10592000404F04BF80000233002807DB420003D44D
:10593000202070470023E8E7581C7047184670473E
:10594000036813F0070207D0D90720D49A0720D4A0
:105950009B0803600220704799B209B91B0C102202
:1059600013F0FF0F04BF1B0A0832190704BF1B09FD
:105970000432990704BF9B080232D90704D45B089C
:1059800001D120207047013203601046704700208B
:1059900070475B0803600120704700BF10B50C46DC
:1059A0000121FFF73DFF01224461026110BD00BFEC
:1059B0002DE9F04F0D691769BD4283B00C461646BC
:1059C00004DA2A4634463D460E461746A368616807
:1059D00005EB07089845C8BF0131FFF721FF00F12B
:1059E000140C0CEB8809CC45009005D263460021CD
:1059F00043F8041B9945FBD806F1140202EB870A11
:105A000004F11403524503EB850E54D2CDF80490F3
:105A1000994652F8043B1FFA83FBBBF1000F20D0DC
:105A200000204F466646054600E01E4657F8044BE8
:105A30003068A1B283B20BFB0131240C000C4B196E
:105A40000BFB040000EB134099B2334641EA0041DE
:105A5000BE454FEA104543F8041BE6D8756052F87E
:105A6000043C5FEA134B20D0DCF800306746184650
:105A70004D46002100E037462C88000C0BFB04004B
:105A800001449CB23E4644EA014346F8043B786830
:105A900055F8044B83B2240C0BFB043404EB114384
:105AA000AE454FEA1341E6D87B6092450CF1040CF9
:105AB000AFD8DDF80490B8F1000F0BDD59F8043CC5
:105AC000A9F104091BB105E059F8043D13B9B8F177
:105AD0000108F9D10098C0F8108003B0BDE8F08F3C
